{
  "abi": [
    {
      "inputs": [
        {
          "internalType": "address",
          "name": "incAddr",
          "type": "address"
        }
      ],
      "stateMutability": "nonpayable",
      "type": "constructor"
    },
    {
      "anonymous": false,
      "inputs": [
        {
          "indexed": false,
          "internalType": "address",
          "name": "sender",
          "type": "address"
        },
        {
          "indexed": true,
          "internalType": "address",
          "name": "tokenAddr",
          "type": "address"
        },
        {
          "indexed": true,
          "internalType": "uint256",
          "name": "tokenId",
          "type": "uint256"
        },
        {
          "indexed": false,
          "internalType": "uint256",
          "name": "tokenAmount",
          "type": "uint256"
        },
        {
          "indexed": false,
          "internalType": "string",
          "name": "cid",
          "type": "string"
        }
      ],
      "name": "Mint",
      "type": "event"
    },
    {
      "anonymous": false,
      "inputs": [
        {
          "indexed": true,
          "internalType": "address",
          "name": "previousOwner",
          "type": "address"
        },
        {
          "indexed": true,
          "internalType": "address",
          "name": "newOwner",
          "type": "address"
        }
      ],
      "name": "OwnershipTransferred",
      "type": "event"
    },
    {
      "anonymous": false,
      "inputs": [
        {
          "indexed": true,
          "internalType": "address",
          "name": "sender",
          "type": "address"
        },
        {
          "indexed": true,
          "internalType": "address",
          "name": "tokenAddr",
          "type": "address"
        },
        {
          "indexed": true,
          "internalType": "uint32",
          "name": "pledgeDays",
          "type": "uint32"
        },
        {
          "indexed": false,
          "internalType": "uint256",
          "name": "tokenId",
          "type": "uint256"
        },
        {
          "indexed": false,
          "internalType": "uint256",
          "name": "amount",
          "type": "uint256"
        }
      ],
      "name": "PledgeToken",
      "type": "event"
    },
    {
      "anonymous": false,
      "inputs": [
        {
          "indexed": true,
          "internalType": "bytes32",
          "name": "role",
          "type": "bytes32"
        },
        {
          "indexed": true,
          "internalType": "bytes32",
          "name": "previousAdminRole",
          "type": "bytes32"
        },
        {
          "indexed": true,
          "internalType": "bytes32",
          "name": "newAdminRole",
          "type": "bytes32"
        }
      ],
      "name": "RoleAdminChanged",
      "type": "event"
    },
    {
      "anonymous": false,
      "inputs": [
        {
          "indexed": true,
          "internalType": "bytes32",
          "name": "role",
          "type": "bytes32"
        },
        {
          "indexed": true,
          "internalType": "address",
          "name": "account",
          "type": "address"
        },
        {
          "indexed": true,
          "internalType": "address",
          "name": "sender",
          "type": "address"
        }
      ],
      "name": "RoleGranted",
      "type": "event"
    },
    {
      "anonymous": false,
      "inputs": [
        {
          "indexed": true,
          "internalType": "bytes32",
          "name": "role",
          "type": "bytes32"
        },
        {
          "indexed": true,
          "internalType": "address",
          "name": "account",
          "type": "address"
        },
        {
          "indexed": true,
          "internalType": "address",
          "name": "sender",
          "type": "address"
        }
      ],
      "name": "RoleRevoked",
      "type": "event"
    },
    {
      "anonymous": false,
      "inputs": [
        {
          "indexed": true,
          "internalType": "address",
          "name": "pledgeAddr",
          "type": "address"
        },
        {
          "indexed": true,
          "internalType": "address",
          "name": "payAddr",
          "type": "address"
        },
        {
          "indexed": true,
          "internalType": "address",
          "name": "profitAddr",
          "type": "address"
        },
        {
          "indexed": false,
          "internalType": "uint32",
          "name": "pledgeDays",
          "type": "uint32"
        }
      ],
      "name": "SetPledgeCfg",
      "type": "event"
    },
    {
      "anonymous": false,
      "inputs": [
        {
          "indexed": true,
          "internalType": "address",
          "name": "sender",
          "type": "address"
        },
        {
          "indexed": true,
          "internalType": "address",
          "name": "newIncome",
          "type": "address"
        },
        {
          "indexed": true,
          "internalType": "address",
          "name": "oldIncome",
          "type": "address"
        }
      ],
      "name": "UpdateIncome",
      "type": "event"
    },
    {
      "anonymous": false,
      "inputs": [
        {
          "indexed": false,
          "internalType": "address",
          "name": "sender",
          "type": "address"
        },
        {
          "indexed": true,
          "internalType": "address",
          "name": "token",
          "type": "address"
        },
        {
          "indexed": true,
          "internalType": "uint256",
          "name": "amount",
          "type": "uint256"
        },
        {
          "indexed": false,
          "internalType": "uint256",
          "name": "tokenId",
          "type": "uint256"
        },
        {
          "indexed": true,
          "internalType": "address",
          "name": "receiver",
          "type": "address"
        }
      ],
      "name": "Withdraw",
      "type": "event"
    },
    {
      "anonymous": false,
      "inputs": [
        {
          "indexed": true,
          "internalType": "address",
          "name": "sender",
          "type": "address"
        },
        {
          "indexed": true,
          "internalType": "address",
          "name": "pledgeToken",
          "type": "address"
        },
        {
          "indexed": false,
          "internalType": "uint256",
          "name": "tokenId",
          "type": "uint256"
        },
        {
          "indexed": false,
          "internalType": "uint256",
          "name": "pledgeAmount",
          "type": "uint256"
        },
        {
          "indexed": false,
          "internalType": "address",
          "name": "profitToken",
          "type": "address"
        },
        {
          "indexed": false,
          "internalType": "uint256",
          "name": "profitAmount",
          "type": "uint256"
        }
      ],
      "name": "WithdrawPledge",
      "type": "event"
    },
    {
      "anonymous": false,
      "inputs": [
        {
          "indexed": true,
          "internalType": "address",
          "name": "sender",
          "type": "address"
        },
        {
          "indexed": true,
          "internalType": "address",
          "name": "profitToken",
          "type": "address"
        },
        {
          "indexed": true,
          "internalType": "uint256",
          "name": "amount",
          "type": "uint256"
        }
      ],
      "name": "WithdrawProfit",
      "type": "event"
    },
    {
      "inputs": [],
      "name": "DEFAULT_ADMIN_ROLE",
      "outputs": [
        {
          "internalType": "bytes32",
          "name": "",
          "type": "bytes32"
        }
      ],
      "stateMutability": "view",
      "type": "function"
    },
    {
      "inputs": [],
      "name": "MGR_ROLE",
      "outputs": [
        {
          "internalType": "bytes32",
          "name": "",
          "type": "bytes32"
        }
      ],
      "stateMutability": "view",
      "type": "function"
    },
    {
      "inputs": [],
      "name": "MINER_ROLE",
      "outputs": [
        {
          "internalType": "bytes32",
          "name": "",
          "type": "bytes32"
        }
      ],
      "stateMutability": "view",
      "type": "function"
    },
    {
      "inputs": [],
      "name": "OWNER_ROLE",
      "outputs": [
        {
          "internalType": "bytes32",
          "name": "",
          "type": "bytes32"
        }
      ],
      "stateMutability": "view",
      "type": "function"
    },
    {
      "inputs": [],
      "name": "PLEDGE_RATE_DECIMAILS",
      "outputs": [
        {
          "internalType": "uint256",
          "name": "",
          "type": "uint256"
        }
      ],
      "stateMutability": "view",
      "type": "function"
    },
    {
      "inputs": [
        {
          "internalType": "address",
          "name": "acc",
          "type": "address"
        },
        {
          "internalType": "address",
          "name": "tokenAddr",
          "type": "address"
        },
        {
          "internalType": "uint256",
          "name": "tokenId",
          "type": "uint256"
        }
      ],
      "name": "getLatestPledge",
      "outputs": [
        {
          "internalType": "uint256",
          "name": "",
          "type": "uint256"
        },
        {
          "internalType": "uint256",
          "name": "",
          "type": "uint256"
        },
        {
          "internalType": "address",
          "name": "",
          "type": "address"
        },
        {
          "internalType": "uint256",
          "name": "",
          "type": "uint256"
        },
        {
          "internalType": "uint256",
          "name": "",
          "type": "uint256"
        }
      ],
      "stateMutability": "nonpayable",
      "type": "function"
    },
    {
      "inputs": [
        {
          "internalType": "address",
          "name": "tokenAddr",
          "type": "address"
        },
        {
          "internalType": "uint32",
          "name": "pledgeDays",
          "type": "uint32"
        }
      ],
      "name": "getPayToken",
      "outputs": [
        {
          "components": [
            {
              "internalType": "address",
              "name": "token",
              "type": "address"
            },
            {
              "internalType": "uint256",
              "name": "tokenId",
              "type": "uint256"
            },
            {
              "internalType": "enum Store.ERCType",
              "name": "ercType",
              "type": "uint8"
            },
            {
              "internalType": "uint256",
              "name": "amount",
              "type": "uint256"
            }
          ],
          "internalType": "struct Store.TokenX",
          "name": "",
          "type": "tuple"
        }
      ],
      "stateMutability": "view",
      "type": "function"
    },
    {
      "inputs": [
        {
          "internalType": "address",
          "name": "acc",
          "type": "address"
        },
        {
          "internalType": "address",
          "name": "tokenAddr",
          "type": "address"
        },
        {
          "internalType": "uint256",
          "name": "tokenId",
          "type": "uint256"
        }
      ],
      "name": "getPledge",
      "outputs": [
        {
          "components": [
            {
              "internalType": "uint256",
              "name": "pledgeAmount",
              "type": "uint256"
            },
            {
              "internalType": "uint256",
              "name": "startTime",
              "type": "uint256"
            },
            {
              "internalType": "uint32",
              "name": "pledgeDays",
              "type": "uint32"
            },
            {
              "internalType": "enum Store.PledgeState",
              "name": "state",
              "type": "uint8"
            },
            {
              "components": [
                {
                  "internalType": "address",
                  "name": "token",
                  "type": "address"
                },
                {
                  "internalType": "uint256",
                  "name": "tokenId",
                  "type": "uint256"
                },
                {
                  "internalType": "enum Store.ERCType",
                  "name": "ercType",
                  "type": "uint8"
                },
                {
                  "internalType": "uint256",
                  "name": "amount",
                  "type": "uint256"
                }
              ],
              "internalType": "struct Store.TokenX",
              "name": "earnToken",
              "type": "tuple"
            },
            {
              "internalType": "uint256",
              "name": "earnRelease",
              "type": "uint256"
            },
            {
              "internalType": "uint256",
              "name": "earnRemain",
              "type": "uint256"
            }
          ],
          "internalType": "struct Store.Pledge",
          "name": "",
          "type": "tuple"
        }
      ],
      "stateMutability": "view",
      "type": "function"
    },
    {
      "inputs": [
        {
          "internalType": "address",
          "name": "tokenAddr",
          "type": "address"
        },
        {
          "internalType": "uint32",
          "name": "pledgeDays",
          "type": "uint32"
        }
      ],
      "name": "getPledgeCfg",
      "outputs": [
        {
          "components": [
            {
              "components": [
                {
                  "internalType": "address",
                  "name": "token",
                  "type": "address"
                },
                {
                  "internalType": "uint256",
                  "name": "tokenId",
                  "type": "uint256"
                },
                {
                  "internalType": "enum Store.ERCType",
                  "name": "ercType",
                  "type": "uint8"
                },
                {
                  "internalType": "uint256",
                  "name": "amount",
                  "type": "uint256"
                }
              ],
              "internalType": "struct Store.TokenX",
              "name": "pledgeToken",
              "type": "tuple"
            },
            {
              "components": [
                {
                  "internalType": "address",
                  "name": "token",
                  "type": "address"
                },
                {
                  "internalType": "uint256",
                  "name": "tokenId",
                  "type": "uint256"
                },
                {
                  "internalType": "enum Store.ERCType",
                  "name": "ercType",
                  "type": "uint8"
                },
                {
                  "internalType": "uint256",
                  "name": "amount",
                  "type": "uint256"
                }
              ],
              "internalType": "struct Store.TokenX",
              "name": "payToken",
              "type": "tuple"
            },
            {
              "components": [
                {
                  "internalType": "address",
                  "name": "token",
                  "type": "address"
                },
                {
                  "internalType": "uint256",
                  "name": "tokenId",
                  "type": "uint256"
                },
                {
                  "internalType": "enum Store.ERCType",
                  "name": "ercType",
                  "type": "uint8"
                },
                {
                  "internalType": "uint256",
                  "name": "amount",
                  "type": "uint256"
                }
              ],
              "internalType": "struct Store.TokenX",
              "name": "profitToken",
              "type": "tuple"
            },
            {
              "components": [
                {
                  "internalType": "enum Store.ProfitType",
                  "name": "profitType",
                  "type": "uint8"
                },
                {
                  "internalType": "bool",
                  "name": "isDayRelease",
                  "type": "bool"
                },
                {
                  "internalType": "uint256",
                  "name": "profit",
                  "type": "uint256"
                }
              ],
              "internalType": "struct Store.PledgeReturn",
              "name": "pledgeReturn",
              "type": "tuple"
            },
            {
              "internalType": "uint32",
              "name": "pledgeDays",
              "type": "uint32"
            }
          ],
          "internalType": "struct Store.PledgeCfg",
          "name": "",
          "type": "tuple"
        }
      ],
      "stateMutability": "view",
      "type": "function"
    },
    {
      "inputs": [
        {
          "internalType": "address",
          "name": "acc",
          "type": "address"
        },
        {
          "internalType": "address",
          "name": "tokenAddr",
          "type": "address"
        },
        {
          "internalType": "uint256",
          "name": "tokenId",
          "type": "uint256"
        }
      ],
      "name": "getPledgeInfo",
      "outputs": [
        {
          "internalType": "uint256",
          "name": "",
          "type": "uint256"
        },
        {
          "internalType": "uint256",
          "name": "",
          "type": "uint256"
        },
        {
          "internalType": "uint32",
          "name": "",
          "type": "uint32"
        },
        {
          "internalType": "address",
          "name": "",
          "type": "address"
        },
        {
          "internalType": "uint256",
          "name": "",
          "type": "uint256"
        },
        {
          "internalType": "uint256",
          "name": "",
          "type": "uint256"
        }
      ],
      "stateMutability": "view",
      "type": "function"
    },
    {
      "inputs": [
        {
          "internalType": "address",
          "name": "tokenAddr",
          "type": "address"
        },
        {
          "internalType": "uint32",
          "name": "pledgeDays",
          "type": "uint32"
        }
      ],
      "name": "getPledgeReturn",
      "outputs": [
        {
          "components": [
            {
              "internalType": "enum Store.ProfitType",
              "name": "profitType",
              "type": "uint8"
            },
            {
              "internalType": "bool",
              "name": "isDayRelease",
              "type": "bool"
            },
            {
              "internalType": "uint256",
              "name": "profit",
              "type": "uint256"
            }
          ],
          "internalType": "struct Store.PledgeReturn",
          "name": "",
          "type": "tuple"
        }
      ],
      "stateMutability": "view",
      "type": "function"
    },
    {
      "inputs": [
        {
          "internalType": "address",
          "name": "tokenAddr",
          "type": "address"
        },
        {
          "internalType": "uint32",
          "name": "pledgeDays",
          "type": "uint32"
        }
      ],
      "name": "getPledgeToken",
      "outputs": [
        {
          "components": [
            {
              "internalType": "address",
              "name": "token",
              "type": "address"
            },
            {
              "internalType": "uint256",
              "name": "tokenId",
              "type": "uint256"
            },
            {
              "internalType": "enum Store.ERCType",
              "name": "ercType",
              "type": "uint8"
            },
            {
              "internalType": "uint256",
              "name": "amount",
              "type": "uint256"
            }
          ],
          "internalType": "struct Store.TokenX",
          "name": "",
          "type": "tuple"
        }
      ],
      "stateMutability": "view",
      "type": "function"
    },
    {
      "inputs": [
        {
          "internalType": "address",
          "name": "tokenAddr",
          "type": "address"
        },
        {
          "internalType": "uint32",
          "name": "pledgeDays",
          "type": "uint32"
        }
      ],
      "name": "getProfitToken",
      "outputs": [
        {
          "components": [
            {
              "internalType": "address",
              "name": "token",
              "type": "address"
            },
            {
              "internalType": "uint256",
              "name": "tokenId",
              "type": "uint256"
            },
            {
              "internalType": "enum Store.ERCType",
              "name": "ercType",
              "type": "uint8"
            },
            {
              "internalType": "uint256",
              "name": "amount",
              "type": "uint256"
            }
          ],
          "internalType": "struct Store.TokenX",
          "name": "",
          "type": "tuple"
        }
      ],
      "stateMutability": "view",
      "type": "function"
    },
    {
      "inputs": [
        {
          "internalType": "bytes32",
          "name": "role",
          "type": "bytes32"
        }
      ],
      "name": "getRoleAdmin",
      "outputs": [
        {
          "internalType": "bytes32",
          "name": "",
          "type": "bytes32"
        }
      ],
      "stateMutability": "view",
      "type": "function"
    },
    {
      "inputs": [
        {
          "internalType": "bytes32",
          "name": "role",
          "type": "bytes32"
        },
        {
          "internalType": "address",
          "name": "account",
          "type": "address"
        }
      ],
      "name": "grantRole",
      "outputs": [],
      "stateMutability": "nonpayable",
      "type": "function"
    },
    {
      "inputs": [
        {
          "internalType": "bytes32",
          "name": "role",
          "type": "bytes32"
        },
        {
          "internalType": "address",
          "name": "account",
          "type": "address"
        }
      ],
      "name": "hasRole",
      "outputs": [
        {
          "internalType": "bool",
          "name": "",
          "type": "bool"
        }
      ],
      "stateMutability": "view",
      "type": "function"
    },
    {
      "inputs": [
        {
          "internalType": "address",
          "name": "tokenAddr",
          "type": "address"
        },
        {
          "internalType": "uint256",
          "name": "tokenId",
          "type": "uint256"
        },
        {
          "internalType": "uint256",
          "name": "tokenAmount",
          "type": "uint256"
        },
        {
          "internalType": "string",
          "name": "cid",
          "type": "string"
        }
      ],
      "name": "mint",
      "outputs": [],
      "stateMutability": "payable",
      "type": "function"
    },
    {
      "inputs": [
        {
          "internalType": "address",
          "name": "tokenAddr",
          "type": "address"
        },
        {
          "internalType": "uint256",
          "name": "tokenId",
          "type": "uint256"
        },
        {
          "internalType": "uint256",
          "name": "tokenAmount",
          "type": "uint256"
        },
        {
          "internalType": "string",
          "name": "cid",
          "type": "string"
        },
        {
          "internalType": "uint32",
          "name": "pledgeDays",
          "type": "uint32"
        }
      ],
      "name": "mintPledge",
      "outputs": [],
      "stateMutability": "payable",
      "type": "function"
    },
    {
      "inputs": [
        {
          "internalType": "address",
          "name": "",
          "type": "address"
        },
        {
          "internalType": "address",
          "name": "",
          "type": "address"
        },
        {
          "internalType": "uint256[]",
          "name": "",
          "type": "uint256[]"
        },
        {
          "internalType": "uint256[]",
          "name": "",
          "type": "uint256[]"
        },
        {
          "internalType": "bytes",
          "name": "",
          "type": "bytes"
        }
      ],
      "name": "onERC1155BatchReceived",
      "outputs": [
        {
          "internalType": "bytes4",
          "name": "",
          "type": "bytes4"
        }
      ],
      "stateMutability": "nonpayable",
      "type": "function"
    },
    {
      "inputs": [
        {
          "internalType": "address",
          "name": "",
          "type": "address"
        },
        {
          "internalType": "address",
          "name": "",
          "type": "address"
        },
        {
          "internalType": "uint256",
          "name": "",
          "type": "uint256"
        },
        {
          "internalType": "uint256",
          "name": "",
          "type": "uint256"
        },
        {
          "internalType": "bytes",
          "name": "",
          "type": "bytes"
        }
      ],
      "name": "onERC1155Received",
      "outputs": [
        {
          "internalType": "bytes4",
          "name": "",
          "type": "bytes4"
        }
      ],
      "stateMutability": "nonpayable",
      "type": "function"
    },
    {
      "inputs": [
        {
          "internalType": "address",
          "name": "",
          "type": "address"
        },
        {
          "internalType": "address",
          "name": "",
          "type": "address"
        },
        {
          "internalType": "uint256",
          "name": "",
          "type": "uint256"
        },
        {
          "internalType": "bytes",
          "name": "",
          "type": "bytes"
        }
      ],
      "name": "onERC721Received",
      "outputs": [
        {
          "internalType": "bytes4",
          "name": "",
          "type": "bytes4"
        }
      ],
      "stateMutability": "nonpayable",
      "type": "function"
    },
    {
      "inputs": [],
      "name": "owner",
      "outputs": [
        {
          "internalType": "address",
          "name": "",
          "type": "address"
        }
      ],
      "stateMutability": "view",
      "type": "function"
    },
    {
      "inputs": [
        {
          "internalType": "address",
          "name": "tokenAddr",
          "type": "address"
        },
        {
          "internalType": "uint256",
          "name": "tokenId",
          "type": "uint256"
        },
        {
          "internalType": "uint256",
          "name": "tokenAmount",
          "type": "uint256"
        },
        {
          "internalType": "uint32",
          "name": "pledgeDays",
          "type": "uint32"
        }
      ],
      "name": "pledgeToken",
      "outputs": [],
      "stateMutability": "nonpayable",
      "type": "function"
    },
    {
      "inputs": [],
      "name": "renounceOwnership",
      "outputs": [],
      "stateMutability": "nonpayable",
      "type": "function"
    },
    {
      "inputs": [
        {
          "internalType": "bytes32",
          "name": "role",
          "type": "bytes32"
        },
        {
          "internalType": "address",
          "name": "account",
          "type": "address"
        }
      ],
      "name": "renounceRole",
      "outputs": [],
      "stateMutability": "nonpayable",
      "type": "function"
    },
    {
      "inputs": [
        {
          "internalType": "bytes32",
          "name": "role",
          "type": "bytes32"
        },
        {
          "internalType": "address",
          "name": "account",
          "type": "address"
        }
      ],
      "name": "revokeRole",
      "outputs": [],
      "stateMutability": "nonpayable",
      "type": "function"
    },
    {
      "inputs": [
        {
          "components": [
            {
              "internalType": "address",
              "name": "token",
              "type": "address"
            },
            {
              "internalType": "uint256",
              "name": "tokenId",
              "type": "uint256"
            },
            {
              "internalType": "enum Store.ERCType",
              "name": "ercType",
              "type": "uint8"
            },
            {
              "internalType": "uint256",
              "name": "amount",
              "type": "uint256"
            }
          ],
          "internalType": "struct Store.TokenX",
          "name": "pledgeToken",
          "type": "tuple"
        },
        {
          "components": [
            {
              "internalType": "address",
              "name": "token",
              "type": "address"
            },
            {
              "internalType": "uint256",
              "name": "tokenId",
              "type": "uint256"
            },
            {
              "internalType": "enum Store.ERCType",
              "name": "ercType",
              "type": "uint8"
            },
            {
              "internalType": "uint256",
              "name": "amount",
              "type": "uint256"
            }
          ],
          "internalType": "struct Store.TokenX",
          "name": "payToken",
          "type": "tuple"
        },
        {
          "components": [
            {
              "internalType": "address",
              "name": "token",
              "type": "address"
            },
            {
              "internalType": "uint256",
              "name": "tokenId",
              "type": "uint256"
            },
            {
              "internalType": "enum Store.ERCType",
              "name": "ercType",
              "type": "uint8"
            },
            {
              "internalType": "uint256",
              "name": "amount",
              "type": "uint256"
            }
          ],
          "internalType": "struct Store.TokenX",
          "name": "profitToken",
          "type": "tuple"
        },
        {
          "components": [
            {
              "internalType": "enum Store.ProfitType",
              "name": "profitType",
              "type": "uint8"
            },
            {
              "internalType": "bool",
              "name": "isDayRelease",
              "type": "bool"
            },
            {
              "internalType": "uint256",
              "name": "profit",
              "type": "uint256"
            }
          ],
          "internalType": "struct Store.PledgeReturn",
          "name": "pledgeReturn",
          "type": "tuple"
        },
        {
          "internalType": "uint32",
          "name": "pledgeDays",
          "type": "uint32"
        }
      ],
      "name": "setPledgeCfg",
      "outputs": [],
      "stateMutability": "nonpayable",
      "type": "function"
    },
    {
      "inputs": [
        {
          "internalType": "bytes4",
          "name": "interfaceId",
          "type": "bytes4"
        }
      ],
      "name": "supportsInterface",
      "outputs": [
        {
          "internalType": "bool",
          "name": "",
          "type": "bool"
        }
      ],
      "stateMutability": "view",
      "type": "function"
    },
    {
      "inputs": [
        {
          "internalType": "address",
          "name": "newOwner",
          "type": "address"
        }
      ],
      "name": "transferOwnership",
      "outputs": [],
      "stateMutability": "nonpayable",
      "type": "function"
    },
    {
      "inputs": [
        {
          "internalType": "address",
          "name": "income",
          "type": "address"
        }
      ],
      "name": "updateIncome",
      "outputs": [],
      "stateMutability": "nonpayable",
      "type": "function"
    },
    {
      "inputs": [
        {
          "internalType": "address",
          "name": "tokenAddr",
          "type": "address"
        },
        {
          "internalType": "uint256",
          "name": "tokenId",
          "type": "uint256"
        },
        {
          "internalType": "uint256",
          "name": "amount",
          "type": "uint256"
        },
        {
          "internalType": "address",
          "name": "receiver",
          "type": "address"
        }
      ],
      "name": "withdraw",
      "outputs": [],
      "stateMutability": "nonpayable",
      "type": "function"
    },
    {
      "inputs": [
        {
          "internalType": "address",
          "name": "plgToken",
          "type": "address"
        },
        {
          "internalType": "uint256",
          "name": "tokenId",
          "type": "uint256"
        }
      ],
      "name": "withdrawPledge",
      "outputs": [],
      "stateMutability": "nonpayable",
      "type": "function"
    },
    {
      "inputs": [
        {
          "internalType": "address",
          "name": "pledgeToken",
          "type": "address"
        },
        {
          "internalType": "uint256",
          "name": "tokenId",
          "type": "uint256"
        }
      ],
      "name": "withdrawProfit",
      "outputs": [],
      "stateMutability": "nonpayable",
      "type": "function"
    }
  ],
  "bytecode": {
    "object": "0x60806040523480156200001157600080fd5b50604051620042273803806200422783398101604081905262000034916200027d565b6200003f336200012c565b6200007a7fa952726ef2588ad078edf35b066f7c7406e207cb0003bbaba8cb53eba9553e72600080516020620042078339815191526200017e565b620000a4600080516020620041e7833981519152600080516020620042078339815191526200017e565b620000d07fa952726ef2588ad078edf35b066f7c7406e207cb0003bbaba8cb53eba9553e7233620001c9565b620000eb6000805160206200420783398151915233620001c9565b62000106600080516020620041e783398151915233620001c9565b600480546001600160a01b0319166001600160a01b0392909216919091179055620002af565b600280546001600160a01b038381166001600160a01b0319831681179093556040519116919082907f8be0079c531659141344cd1fd0a4f28419497f9722a3daafe3b4186f6b6457e090600090a35050565b600082815260036020526040808220600101805490849055905190918391839186917fbd79b86ffe0ab8e8776151514217cd7cacd52c909f66475c3af44e129f0b00ff9190a4505050565b620001d58282620001d9565b5050565b60008281526003602090815260408083206001600160a01b038516845290915290205460ff16620001d55760008281526003602090815260408083206001600160a01b03851684529091529020805460ff19166001179055620002393390565b6001600160a01b0316816001600160a01b0316837f2f8788117e7eff1d82e926ec794901d17c78024a50270940304540a733656f0d60405160405180910390a45050565b6000602082840312156200029057600080fd5b81516001600160a01b0381168114620002a857600080fd5b9392505050565b613f2880620002bf6000396000f3fe6080604052600436106101ee5760003560e01c80638703ba2b1161010d578063bb7fde71116100a0578063e58378bb1161006f578063e58378bb1461066e578063f23a6e61146106a2578063f2fde38b146106ce578063f7c24aa3146106ee578063f9dfa79f1461070e57600080fd5b8063bb7fde71146105fa578063bc197c811461060e578063d35c9a071461062e578063d547741f1461064e57600080fd5b80639785207e116100dc5780639785207e1461056b578063a217fddf1461058b578063a68aede0146105a0578063ac346a1f146105cd57600080fd5b80638703ba2b146104d65780638da5cb5b1461050357806391d148541461052b57806396c817e71461054b57600080fd5b806334771e62116101855780636394f6e6116101545780636394f6e61461040c5780636c83fc341461044057806370dcbfc614610460578063715018a6146104c157600080fd5b806334771e621461038257806336568abe14610398578063444bbb54146103b857806359f1da6c146103ec57600080fd5b8063248a9ca3116101c1578063248a9ca3146102bb57806326cbd26b146102f957806327a99cb11461030c5780632f2ff15d1461036257600080fd5b806301ffc9a7146101f3578063150b7a021461022857806316762eed1461026c57806322eb79311461028e575b600080fd5b3480156101ff57600080fd5b5061021361020e3660046132eb565b61072e565b60405190151581526020015b60405180910390f35b34801561023457600080fd5b506102536102433660046133e8565b630a85bd0160e11b949350505050565b6040516001600160e01b0319909116815260200161021f565b34801561027857600080fd5b5061028c610287366004613450565b610765565b005b34801561029a57600080fd5b506102ae6102a93660046134aa565b6109b3565b60405161021f919061352f565b3480156102c757600080fd5b506102eb6102d636600461353d565b60009081526003602052604090206001015490565b60405190815260200161021f565b61028c610307366004613556565b6109d0565b34801561031857600080fd5b5061032c6103273660046135c8565b610b76565b6040805195865260208601949094526001600160a01b03909216928401929092526060830191909152608082015260a00161021f565b34801561036e57600080fd5b5061028c61037d366004613604565b610ca3565b34801561038e57600080fd5b506102eb61271081565b3480156103a457600080fd5b5061028c6103b3366004613604565b610ccd565b3480156103c457600080fd5b506102eb7f559ed53715d3bb4e833868d1befaf5d894eb100353e9c04fc83767f0f381473e81565b3480156103f857600080fd5b5061028c610407366004613627565b610d4b565b34801561041857600080fd5b506102eb7fa952726ef2588ad078edf35b066f7c7406e207cb0003bbaba8cb53eba9553e7281565b34801561044c57600080fd5b506102ae61045b3660046134aa565b610f42565b34801561046c57600080fd5b5061048061047b3660046135c8565b610f5c565b60408051968752602087019590955263ffffffff909316938501939093526001600160a01b03166060840152608083019190915260a082015260c00161021f565b3480156104cd57600080fd5b5061028c6110bd565b3480156104e257600080fd5b506104f66104f13660046134aa565b6110d1565b60405161021f9190613696565b34801561050f57600080fd5b506002546040516001600160a01b03909116815260200161021f565b34801561053757600080fd5b50610213610546366004613604565b611103565b34801561055757600080fd5b5061028c6105663660046136bc565b61112e565b34801561057757600080fd5b506102ae6105863660046134aa565b611655565b34801561059757600080fd5b506102eb600081565b3480156105ac57600080fd5b506105c06105bb3660046135c8565b611672565b60405161021f9190613729565b3480156105d957600080fd5b506105ed6105e83660046134aa565b6117a1565b60405161021f9190613793565b61028c6106083660046137f9565b50505050565b34801561061a57600080fd5b506102536106293660046138c2565b6117b3565b34801561063a57600080fd5b5061028c61064936600461396c565b6117c5565b34801561065a57600080fd5b5061028c610669366004613604565b6118c8565b34801561067a57600080fd5b506102eb7fb19546dff01e856fb3f010c267a7b1c60363cf8a4664e21cc89c26224620214e81565b3480156106ae57600080fd5b506102536106bd366004613996565b63f23a6e6160e01b95945050505050565b3480156106da57600080fd5b5061028c6106e93660046139fb565b6118ed565b3480156106fa57600080fd5b5061028c6107093660046139fb565b611966565b34801561071a57600080fd5b5061028c61072936600461396c565b611a06565b60006001600160e01b03198216637965db0b60e01b148061075f57506301ffc9a760e01b6001600160e01b03198316145b92915050565b61076d611ce9565b6001600160a01b0381166107b75760405162461bcd60e51b815260206004820152600c60248201526b32b939103932b1b2b4bb32b960a11b60448201526064015b60405180910390fd5b6001600160a01b038416610801576040516001600160a01b0382169083156108fc029084906000818181858888f193505050501580156107fb573d6000803e3d6000fd5b50610962565b8260000361087c5760405163a9059cbb60e01b81526001600160a01b0382811660048301526024820184905285169063a9059cbb906044016020604051808303816000875af1158015610858573d6000803e3d6000fd5b505050506040513d601f19601f820116820180604052508101906107fb9190613a24565b81156108f95760408051602081018252600081529051637921219560e11b81526001600160a01b0386169163f242432a916108c291309186918991899190600401613a91565b600060405180830381600087803b1580156108dc57600080fd5b505af11580156108f0573d6000803e3d6000fd5b50505050610962565b6040516323b872dd60e01b81523060048201526001600160a01b038281166024830152604482018590528516906323b872dd90606401600060405180830381600087803b15801561094957600080fd5b505af115801561095d573d6000803e3d6000fd5b505050505b60408051338152602081018590526001600160a01b03808416928592918816917ffb80d861da582b723be2d19507ce3e03851820c464abea89156ec77e089b1ad9910160405180910390a450505050565b6109bb613226565b6109c58383611d43565b602001519392505050565b848460006109df338484611f3e565b3360009081526001602081815260408084208585528252808420815160e08101835281548152938101549284019290925260028083015463ffffffff8116928501929092529495509293919290916060840191600160201b900460ff1690811115610a4c57610a4c6134dd565b6002811115610a5d57610a5d6134dd565b8152604080516080810182526003840180546001600160a01b031682526004808601546020848101919091526005870154950194929391929184019160ff1690811115610aac57610aac6134dd565b6004811115610abd57610abd6134dd565b8152600391909101546020918201529082526007830154908201526008909101546040909101529050600081606001516002811115610afe57610afe6134dd565b14610b445760405162461bcd60e51b8152602060048201526016602482015275283632b233b4b7339037b910283632b233b2b217171760511b60448201526064016107ae565b610b5289898989308a611f82565b63ffffffff851615610b6b57610b6b338a8a8a8961212d565b505050505050505050565b600080600080600080610b8a89898961237b565b6040805160e081018252825481526001830154602082015260028084015463ffffffff8116938301939093529092916060840191600160201b90910460ff1690811115610bd957610bd96134dd565b6002811115610bea57610bea6134dd565b8152604080516080810182526003840180546001600160a01b031682526004808601546020848101919091526005870154950194929391929184019160ff1690811115610c3957610c396134dd565b6004811115610c4a57610c4a6134dd565b81526003919091015460209182015290825260078301549082015260089091015460409182015281519082015160808301515160a084015160c090940151929d63ffffffff9092169c509a509198509650945050505050565b600082815260036020526040902060010154610cbe816125ed565b610cc883836125f7565b505050565b6001600160a01b0381163314610d3d5760405162461bcd60e51b815260206004820152602f60248201527f416363657373436f6e74726f6c3a2063616e206f6e6c792072656e6f756e636560448201526e103937b632b9903337b91039b2b63360891b60648201526084016107ae565b610d47828261267d565b5050565b808063ffffffff1660071480610d6757508063ffffffff16601e145b80610d7857508063ffffffff16605a145b80610d8957508063ffffffff1660b4145b610dce5760405162461bcd60e51b815260206004820152601660248201527504d75737420626520372c33302c36302c39302c3138360541b60448201526064016107ae565b84846000610ddd338484611f3e565b3360009081526001602081815260408084208585528252808420815160e08101835281548152938101549284019290925260028083015463ffffffff8116928501929092529495509293919290916060840191600160201b900460ff1690811115610e4a57610e4a6134dd565b6002811115610e5b57610e5b6134dd565b8152604080516080810182526003840180546001600160a01b031682526004808601546020848101919091526005870154950194929391929184019160ff1690811115610eaa57610eaa6134dd565b6004811115610ebb57610ebb6134dd565b8152600391909101546020918201529082526007830154908201526008909101546040909101529050600081606001516002811115610efc57610efc6134dd565b14610b6b5760405162461bcd60e51b8152602060048201526016602482015275283632b233b4b7339037b910283632b233b2b217171760511b60448201526064016107ae565b610f4a613226565b610f548383611d43565b519392505050565b6000806000806000806000610f728a8a8a6126e4565b6001600160a01b038b1660009081526001602081815260408084208585528252808420815160e08101835281548152938101549284019290925260028083015463ffffffff8116928501929092529495509293919290916060840191600160201b900460ff1690811115610fe857610fe86134dd565b6002811115610ff957610ff96134dd565b8152604080516080810182526003840180546001600160a01b031682526004808601546020848101919091526005870154950194929391929184019160ff1690811115611048576110486134dd565b6004811115611059576110596134dd565b815260200160038201548152505081526020016007820154815260200160088201548152505090508060000151816020015182604001518360800151600001518460a001518560c00151975097509750975097509750505093975093979195509350565b6110c5611ce9565b6110cf60006126f1565b565b60408051606081018252600080825260208201819052918101919091526110f88383611d43565b606001519392505050565b60009182526003602090815260408084206001600160a01b0393909316845291905290205460ff1690565b6111587f559ed53715d3bb4e833868d1befaf5d894eb100353e9c04fc83767f0f381473e33611103565b6111945760405162461bcd60e51b815260206004820152600d60248201526c27b7363c9036b0b730b3b2b93f60991b60448201526064016107ae565b60006111d26111a660208801886139fb565b836040516020016111b8929190613acb565b604051602081830303815290604052805160209091012090565b6000818152602081905260409020549091506001600160a01b0316156112255760405162461bcd60e51b8152602060048201526008602482015267657869737465642160c01b60448201526064016107ae565b60026112376060880160408901613b09565b6004811115611248576112486134dd565b1480611274575060036112616060880160408901613b09565b6004811115611272576112726134dd565b145b156112f25760006112886020850185613b33565b6002811115611299576112996134dd565b036112f25760405162461bcd60e51b8152602060048201526024808201527f4e465420706c65646765206d75737420757365205061795072696365506572206044820152637479706560e01b60648201526084016107ae565b60026113016020850185613b33565b6002811115611312576113126134dd565b036113a65761132460208501856139fb565b6001600160a01b031661133a60208701876139fb565b6001600160a01b0316146113a65760405162461bcd60e51b815260206004820152602d60248201527f50726f666974547970652e50617950726963655065723d3e706179546f6b656e60448201526c1e9eb83937b334ba2a37b5b2b760991b60648201526084016107ae565b6040518060a00160405280878036038101906113c29190613b4e565b81526020016113d636889003880188613b4e565b81526020016113ea36879003870187613b4e565b81526020016113fe36869003860186613bc0565b815263ffffffff841660209182015260008381528082526040908190208351805182546001600160a01b0319166001600160a01b039091161782559283015160018083019190915591830151600282018054929493859360ff19169083600481111561146c5761146c6134dd565b0217905550606091909101516003909101556020828101518051600484810180546001600160a01b0319166001600160a01b039093169290921782559282015160058501556040820151600685018054939492939192909160ff19169060019084908111156114dd576114dd6134dd565b02179055506060919091015160039091015560408281015180516008840180546001600160a01b0319166001600160a01b039092169190911781556020820151600985015591810151600a8401805492939260ff19166001836004811115611547576115476134dd565b02179055506060918201516003909101558201518051600c83018054909190829060ff19166001836002811115611580576115806134dd565b021790555060208281015182549015156101000261ff001990911617825560409092015160019091015560809290920151600e909101805463ffffffff90921663ffffffff199092169190911790556115db908501856139fb565b6001600160a01b03166115f160208701876139fb565b6001600160a01b031661160760208901896139fb565b60405163ffffffff861681526001600160a01b0391909116907f643d00b13444c16cafc3114d2cb054886ff44b5fe7c0f1b4eddcaf26983cbeb79060200160405180910390a4505050505050565b61165d613226565b6116678383611d43565b604001519392505050565b61167a61324e565b60006116878585856126e4565b6001600160a01b03861660009081526001602081815260408084208585528252808420815160e08101835281548152938101549284019290925260028083015463ffffffff8116928501929092529495509293919290916060840191600160201b900460ff16908111156116fd576116fd6134dd565b600281111561170e5761170e6134dd565b8152604080516080810182526003840180546001600160a01b031682526004808601546020848101919091526005870154950194929391929184019160ff169081111561175d5761175d6134dd565b600481111561176e5761176e6134dd565b815260039190910154602091820152908252600783015490820152600890910154604090910152925050505b9392505050565b6117a9613291565b61179a8383611d43565b63bc197c8160e01b5b95945050505050565b60006117d233848461237b565b60028101549091506000906117ee90859063ffffffff16611d43565b90506001600283810154600160201b900460ff1690811115611812576118126134dd565b0361185a5780606001516020015161185a5760405162461bcd60e51b815260206004820152600b60248201526a1b9bdd08195e1c1a5c995960aa1b60448201526064016107ae565b6008820154806118a05760405162461bcd60e51b81526020600482015260116024820152702737ba3434b733903bb4ba34323930bbbf60791b60448201526064016107ae565b6040808301516000600886015580519181015190916118c0918785612743565b505050505050565b6000828152600360205260409020600101546118e3816125ed565b610cc8838361267d565b6118f5611ce9565b6001600160a01b03811661195a5760405162461bcd60e51b815260206004820152602660248201527f4f776e61626c653a206e6577206f776e657220697320746865207a65726f206160448201526564647265737360d01b60648201526084016107ae565b611963816126f1565b50565b61196e611ce9565b6001600160a01b0381166119b35760405162461bcd60e51b815260206004820152600c60248201526b7a65726f206164647265737360a01b60448201526064016107ae565b600480546001600160a01b038381166001600160a01b031983168117909355604051911691829133907facfdf2068f2b4dda3f4970ef49a4cad3a0a7735a3badb3577bcabb3a8898073890600090a45050565b6000611a1333848461237b565b905060028082810154600160201b900460ff1690811115611a3657611a366134dd565b14611a785760405162461bcd60e51b8152602060048201526012602482015271506c6564676520756e66696e69736865642160701b60448201526064016107ae565b6008810180546000918290556002830154909190611a9d90869063ffffffff16611d43565b8051604001516003850154600586015492935090916001600160a01b039091169060ff168415611ad357611ad382828988612743565b6001836004811115611ae757611ae76134dd565b03611b635760405163a9059cbb60e01b8152336004820152602481018690526001600160a01b0389169063a9059cbb906044016020604051808303816000875af1158015611b39573d6000803e3d6000fd5b505050506040513d601f19601f82011682018060405250810190611b5d9190613a24565b50611c73565b6002836004811115611b7757611b776134dd565b03611be7576040516323b872dd60e01b8152306004820152336024820152604481018890526001600160a01b038916906323b872dd90606401600060405180830381600087803b158015611bca57600080fd5b505af1158015611bde573d6000803e3d6000fd5b50505050611c73565b6002836004811115611bfb57611bfb6134dd565b03611c735760408051602081018252600081529051637921219560e11b81526001600160a01b038a169163f242432a91611c4091309133918d918c9190600401613a91565b600060405180830381600087803b158015611c5a57600080fd5b505af1158015611c6e573d6000803e3d6000fd5b505050505b855460038701546007880154604080518b815260208101949094526001600160a01b0392831690840152606083015289169033907f7f17ff0c099057bb0e700cc8906e38df4274727452016bb115c5fa3138a6de949060800160405180910390a3611cdf3389896128e9565b5050505050505050565b6002546001600160a01b031633146110cf5760405162461bcd60e51b815260206004820181905260248201527f4f776e61626c653a2063616c6c6572206973206e6f7420746865206f776e657260448201526064016107ae565b611d4b613291565b6000611d6384846040516020016111b8929190613acb565b600081815260208190526040908190208151610120810190925280546001600160a01b031660a08301908152600182015460c08401526002820154939450919290918391839060e084019060ff166004811115611dc257611dc26134dd565b6004811115611dd357611dd36134dd565b81526003919091015460209182015290825260408051608081018252600485810180546001600160a01b031683526005870154838601526006870154959094019491939284019160ff1690811115611e2d57611e2d6134dd565b6004811115611e3e57611e3e6134dd565b815260039190910154602091820152908252604080516080810182526008850180546001600160a01b03168252600986015482850152600a860154949093019390929183019060ff166004811115611e9857611e986134dd565b6004811115611ea957611ea96134dd565b81526020016003820154815250508152602001600c82016040518060600160405290816000820160009054906101000a900460ff166002811115611eef57611eef6134dd565b6002811115611f0057611f006134dd565b81528154610100900460ff161515602080830191909152600190920154604090910152908252600e929092015463ffffffff16910152949350505050565b6040516bffffffffffffffffffffffff19606085811b8216602084015284901b16603482015260488101829052600090611f7a906068016111b8565b949350505050565b6000611f8e8783611d43565b8051519091506001600160a01b0316611fe25760405162461bcd60e51b81526020600482015260166024820152756e6f74207468697320706c6564676520746f6b656e2160501b60448201526064016107ae565b611fef8160200151612975565b61203b5760405162461bcd60e51b815260206004820152601760248201527f706179546f6b656e2068616e646c65206661696c65642100000000000000000060448201526064016107ae565b805161204a9087878787612c31565b6120855760405162461bcd60e51b815260206004820152600c60248201526b6d696e74206661696c65642160a01b60448201526064016107ae565b6120928160400151612d71565b6120de5760405162461bcd60e51b815260206004820152601860248201527f61697244726f70546f6b656e20756e66696e697368656421000000000000000060448201526064016107ae565b85876001600160a01b03167fad2943b15836caf43698401a62af4738985fb33dd979844d99d37f5293f037d333888860405161211c93929190613c29565b60405180910390a350505050505050565b808063ffffffff166007148061214957508063ffffffff16601e145b8061215a57508063ffffffff16605a145b8061216b57508063ffffffff1660b4145b6121b05760405162461bcd60e51b815260206004820152601660248201527504d75737420626520372c33302c36302c39302c3138360541b60448201526064016107ae565b60006121bd878787611f3e565b905060006121cb8785611d43565b604080820151815160e08101835288815242602082015263ffffffff881692810192909252919250606081016001815260208082018490526000604080840182905260609384018290526001600160a01b038e16825260018084528183208984528452918190208551815592850151918301919091558301516002808301805463ffffffff90931663ffffffff19841681178255948601519394909264ffffffffff19161790600160201b908490811115612288576122886134dd565b0217905550608082015180516003830180546001600160a01b0319166001600160a01b03909216919091178155602082015160048085019190915560408301516005850180549192909160ff19169060019084908111156122eb576122eb6134dd565b021790555060608201518160030155505060a0820151816007015560c082015181600801559050508463ffffffff16886001600160a01b03168a6001600160a01b03167f7ea654199703f048d1efb719754a27859d7289ddb9088d0a8e14e413ada7192a8a8a604051612368929190918252602082015260400190565b60405180910390a4505050505050505050565b6000806123898585856126e4565b6001600160a01b03861660009081526001602090815260408083208484529091528120919250600282810154600160201b900460ff16908111156123cf576123cf6134dd565b036124075760405162461bcd60e51b8152602060048201526008602482015267556e506c6564676560c01b60448201526064016107ae565b60028082810154600160201b900460ff1690811115612428576124286134dd565b0361243657915061179a9050565b600281015463ffffffff1660006124508262015180613c66565b63ffffffff1683600101546124659190613c8e565b90506000814210612494575060028301805464ff00000000191664020000000017905563ffffffff82166124b5565b620151808460010154426124a89190613ca1565b6124b29190613cb4565b90505b600284015460009081906124d0908b9063ffffffff16611d43565b60608101519091506000815160028111156124ed576124ed6134dd565b0361251f57865460038801546040830151612518928e9290916001600160a01b039091169088612eb8565b92506125a6565b600181516002811115612534576125346134dd565b036125485760408101516125189085613cd6565b60028151600281111561255d5761255d6134dd565b036125a6576006870154600081900361257b57506020820151606001515b60408201516127109061258e8388613cd6565b6125989190613cd6565b6125a29190613cb4565b9350505b600787015460006125b78286613ca1565b9050848960070181905550808960080160008282546125d69190613c8e565b90915550989e9d5050505050505050505050505050565b611963813361301f565b6126018282611103565b610d475760008281526003602090815260408083206001600160a01b03851684529091529020805460ff191660011790556126393390565b6001600160a01b0316816001600160a01b0316837f2f8788117e7eff1d82e926ec794901d17c78024a50270940304540a733656f0d60405160405180910390a45050565b6126878282611103565b15610d475760008281526003602090815260408083206001600160a01b0385168085529252808320805460ff1916905551339285917ff6391f5c32d9c69d2a47ea670b442974b53935d1edc7fd64eb21e047a839171b9190a45050565b6000611f7a848484611f3e565b600280546001600160a01b038381166001600160a01b0319831681179093556040519116919082907f8be0079c531659141344cd1fd0a4f28419497f9722a3daafe3b4186f6b6457e090600090a35050565b6001836004811115612757576127576134dd565b036127c2576040516340c10f1960e01b8152336004820152602481018290526001600160a01b038516906340c10f19906044015b600060405180830381600087803b1580156127a557600080fd5b505af11580156127b9573d6000803e3d6000fd5b505050506128ab565b60028360048111156127d6576127d66134dd565b0361281c576040516334ff261960e21b81523360048201526024810183905260606044820152600060648201526001600160a01b0385169063d3fc98649060840161278b565b6002836004811115612830576128306134dd565b036128ab5760405163bb7fde7160e01b8152336004820152602481018390526044810182905260806064820152600060848201526001600160a01b0385169063bb7fde719060a401600060405180830381600087803b15801561289257600080fd5b505af11580156128a6573d6000803e3d6000fd5b505050505b60405181906001600160a01b0386169033907f7d11196ad7aec5325589a029930cc3b3c650fa71f6d6bca14bd1c3f4454e99be90600090a450505050565b60006128f68484846126e4565b6001600160a01b03909416600090815260016020818152604080842097845296905294812081815594850181905560028501805464ffffffffff191690556003850180546001600160a01b03191690556004850181905560058501805460ff191690556006850181905560078501819055600890940193909355505050565b6000816060015160000361298b57506001919050565b81516001600160a01b03161580156129b857506004826040015160048111156129b6576129b66134dd565b145b15612a0b578160600151341015612a065760405162461bcd60e51b815260206004820152601260248201527136b9b3973b30b63ab2903a37b7903637bbbf60711b60448201526064016107ae565b612b66565b815160608301516040516323b872dd60e01b815233600482015230602482015260448101919091526001600160a01b03909116906323b872dd906064016020604051808303816000875af1158015612a67573d6000803e3d6000fd5b505050506040513d601f19601f82011682018060405250810190612a8b9190613a24565b612ae55760405162461bcd60e51b815260206004820152602560248201527f4552433230207472616e73666572206661696c656421204d61796265206e6f74604482015264040c2eae8d60db1b60648201526084016107ae565b815160048054606085015160405163095ea7b360e01b81526001600160a01b039283169381019390935260248301529091169063095ea7b3906044016020604051808303816000875af1158015612b40573d6000803e3d6000fd5b505050506040513d601f19601f82011682018060405250810190612b649190613a24565b505b600480548351606085015160405163b0aaeed960e01b81526001600160a01b03928316948101949094526024840152169063b0aaeed990349060440160206040518083038185885af1158015612bc0573d6000803e3d6000fd5b50505050506040513d601f19601f82011682018060405250810190612be59190613a24565b612c295760405162461bcd60e51b81526020600482015260156024820152746465706f736974496e636f6d65206661696c65642160581b60448201526064016107ae565b506001919050565b6000600186604001516004811115612c4b57612c4b6134dd565b03612cbb5785516040516340c10f1960e01b81526001600160a01b03848116600483015260248201879052909116906340c10f19906044015b600060405180830381600087803b158015612c9e57600080fd5b505af1158015612cb2573d6000803e3d6000fd5b50505050612d65565b600286604001516004811115612cd357612cd36134dd565b03612d0b5785516040516334ff261960e21b81526001600160a01b039091169063d3fc986490612c8490859089908890600401613c29565b600386604001516004811115612d2357612d236134dd565b03612d5d57855160405163bb7fde7160e01b81526001600160a01b039091169063bb7fde7190612c84908590899089908990600401613ced565b5060006117bc565b50600195945050505050565b60008160600151600003612d8757506001919050565b81516001600160a01b0316158015612db45750600482604001516004811115612db257612db26134dd565b145b15612e47578160600151341015612e0d5760405162461bcd60e51b815260206004820152601b60248201527f41697244726f703a206d73672e76616c756520746f6f206c6f777e000000000060448201526064016107ae565b60608201516040513391829181156108fc0291906000818181858888f19350505050158015612e40573d6000803e3d6000fd5b5050612c29565b815160608301516040516340c10f1960e01b815233600482015260248101919091526001600160a01b03909116906340c10f1990604401600060405180830381600087803b158015612e9857600080fd5b505af1158015612eac573d6000803e3d6000fd5b50505050506001919050565b600080866001600160a01b031663313ce5676040518163ffffffff1660e01b8152600401602060405180830381865afa158015612ef9573d6000803e3d6000fd5b505050506040513d601f19601f82011682018060405250810190612f1d9190613d24565b60ff1690506000856001600160a01b031663313ce5676040518163ffffffff1660e01b8152600401602060405180830381865afa158015612f62573d6000803e3d6000fd5b505050506040513d601f19601f82011682018060405250810190612f869190613d24565b60ff16905063ffffffff8216819003612fc45761271084612fa7878a613cd6565b612fb19190613cd6565b612fbb9190613cb4565b925050506117bc565b6000612fd183600a613e2b565b612710612fdf84600a613e2b565b88612fea8c8a613cd6565b612ff49190613cd6565b612ffe9190613cd6565b6130089190613cb4565b6130129190613cb4565b9998505050505050505050565b6130298282611103565b610d475761303681613078565b61304183602061308a565b604051602001613052929190613e3d565b60408051601f198184030181529082905262461bcd60e51b82526107ae91600401613eb2565b606061075f6001600160a01b03831660145b60606000613099836002613cd6565b6130a4906002613c8e565b67ffffffffffffffff8111156130bc576130bc613331565b6040519080825280601f01601f1916602001820160405280156130e6576020820181803683370190505b509050600360fc1b8160008151811061310157613101613ec5565b60200101906001600160f81b031916908160001a905350600f60fb1b8160018151811061313057613130613ec5565b60200101906001600160f81b031916908160001a9053506000613154846002613cd6565b61315f906001613c8e565b90505b60018111156131d7576f181899199a1a9b1b9c1cb0b131b232b360811b85600f166010811061319357613193613ec5565b1a60f81b8282815181106131a9576131a9613ec5565b60200101906001600160f81b031916908160001a90535060049490941c936131d081613edb565b9050613162565b50831561179a5760405162461bcd60e51b815260206004820181905260248201527f537472696e67733a20686578206c656e67746820696e73756666696369656e7460448201526064016107ae565b6040805160808101825260008082526020820181905290918201908152602001600081525090565b6040805160e081018252600080825260208201819052918101829052906060820190815260200161327d613226565b815260200160008152602001600081525090565b6040518060a001604052806132a4613226565b81526020016132b1613226565b81526020016132be613226565b81526040805160608101825260008082526020828101829052928201529101908152600060209091015290565b6000602082840312156132fd57600080fd5b81356001600160e01b03198116811461179a57600080fd5b80356001600160a01b038116811461332c57600080fd5b919050565b634e487b7160e01b600052604160045260246000fd5b604051601f8201601f1916810167ffffffffffffffff8111828210171561337057613370613331565b604052919050565b600082601f83011261338957600080fd5b813567ffffffffffffffff8111156133a3576133a3613331565b6133b6601f8201601f1916602001613347565b8181528460208386010111156133cb57600080fd5b816020850160208301376000918101602001919091529392505050565b600080600080608085870312156133fe57600080fd5b61340785613315565b935061341560208601613315565b925060408501359150606085013567ffffffffffffffff81111561343857600080fd5b61344487828801613378565b91505092959194509250565b6000806000806080858703121561346657600080fd5b61346f85613315565b9350602085013592506040850135915061348b60608601613315565b905092959194509250565b803563ffffffff8116811461332c57600080fd5b600080604083850312156134bd57600080fd5b6134c683613315565b91506134d460208401613496565b90509250929050565b634e487b7160e01b600052602160045260246000fd5b80516001600160a01b031682526020808201519083015260408101516005811061351f5761351f6134dd565b6040830152606090810151910152565b6080810161075f82846134f3565b60006020828403121561354f57600080fd5b5035919050565b600080600080600060a0868803121561356e57600080fd5b61357786613315565b94506020860135935060408601359250606086013567ffffffffffffffff8111156135a157600080fd5b6135ad88828901613378565b9250506135bc60808701613496565b90509295509295909350565b6000806000606084860312156135dd57600080fd5b6135e684613315565b92506135f460208501613315565b9150604084013590509250925092565b6000806040838503121561361757600080fd5b823591506134d460208401613315565b6000806000806080858703121561363d57600080fd5b61364685613315565b9350602085013592506040850135915061348b60608601613496565b60038110611963576119636134dd565b805161367d81613662565b8252602081810151151590830152604090810151910152565b6060810161075f8284613672565b6000608082840312156136b657600080fd5b50919050565b60008060008060008587036102008112156136d657600080fd5b6136e088886136a4565b95506136ef88608089016136a4565b94506136ff8861010089016136a4565b9350606061017f198201121561371457600080fd5b50610180860191506135bc6101e08701613496565b600061014082019050825182526020830151602083015263ffffffff6040840151166040830152606083015161375e81613662565b80606084015250608083015161377760808401826134f3565b5060a083015161010083015260c0909201516101209091015290565b6000610200820190506137a78284516134f3565b60208301516137b960808401826134f3565b5060408301516137cd6101008401826134f3565b5060608301516137e1610180840182613672565b5063ffffffff6080840151166101e083015292915050565b6000806000806080858703121561380f57600080fd5b61381885613315565b93506020850135925060408501359150606085013567ffffffffffffffff81111561343857600080fd5b600082601f83011261385357600080fd5b8135602067ffffffffffffffff82111561386f5761386f613331565b8160051b61387e828201613347565b928352848101820192828101908785111561389857600080fd5b83870192505b848310156138b75782358252918301919083019061389e565b979650505050505050565b600080600080600060a086880312156138da57600080fd5b6138e386613315565b94506138f160208701613315565b9350604086013567ffffffffffffffff8082111561390e57600080fd5b61391a89838a01613842565b9450606088013591508082111561393057600080fd5b61393c89838a01613842565b9350608088013591508082111561395257600080fd5b5061395f88828901613378565b9150509295509295909350565b6000806040838503121561397f57600080fd5b61398883613315565b946020939093013593505050565b600080600080600060a086880312156139ae57600080fd5b6139b786613315565b94506139c560208701613315565b93506040860135925060608601359150608086013567ffffffffffffffff8111156139ef57600080fd5b61395f88828901613378565b600060208284031215613a0d57600080fd5b61179a82613315565b801515811461196357600080fd5b600060208284031215613a3657600080fd5b815161179a81613a16565b60005b83811015613a5c578181015183820152602001613a44565b50506000910152565b60008151808452613a7d816020860160208601613a41565b601f01601f19169290920160200192915050565b6001600160a01b03868116825285166020820152604081018490526060810183905260a0608082018190526000906138b790830184613a65565b60609290921b6bffffffffffffffffffffffff1916825260e01b6001600160e01b031916601482015260180190565b80356005811061332c57600080fd5b600060208284031215613b1b57600080fd5b61179a82613afa565b80356003811061332c57600080fd5b600060208284031215613b4557600080fd5b61179a82613b24565b600060808284031215613b6057600080fd5b6040516080810181811067ffffffffffffffff82111715613b8357613b83613331565b604052613b8f83613315565b815260208301356020820152613ba760408401613afa565b6040820152606083013560608201528091505092915050565b600060608284031215613bd257600080fd5b6040516060810181811067ffffffffffffffff82111715613bf557613bf5613331565b604052613c0183613b24565b81526020830135613c1181613a16565b60208201526040928301359281019290925250919050565b60018060a01b03841681528260208201526060604082015260006117bc6060830184613a65565b634e487b7160e01b600052601160045260246000fd5b63ffffffff818116838216028082169190828114613c8657613c86613c50565b505092915050565b8082018082111561075f5761075f613c50565b8181038181111561075f5761075f613c50565b600082613cd157634e487b7160e01b600052601260045260246000fd5b500490565b808202811582820484141761075f5761075f613c50565b60018060a01b0385168152836020820152826040820152608060608201526000613d1a6080830184613a65565b9695505050505050565b600060208284031215613d3657600080fd5b815160ff8116811461179a57600080fd5b600181815b80851115613d82578160001904821115613d6857613d68613c50565b80851615613d7557918102915b93841c9390800290613d4c565b509250929050565b600082613d995750600161075f565b81613da65750600061075f565b8160018114613dbc5760028114613dc657613de2565b600191505061075f565b60ff841115613dd757613dd7613c50565b50506001821b61075f565b5060208310610133831016604e8410600b8410161715613e05575081810a61075f565b613e0f8383613d47565b8060001904821115613e2357613e23613c50565b029392505050565b600061179a63ffffffff841683613d8a565b7f416363657373436f6e74726f6c3a206163636f756e7420000000000000000000815260008351613e75816017850160208801613a41565b7001034b99036b4b9b9b4b733903937b6329607d1b6017918401918201528351613ea6816028840160208801613a41565b01602801949350505050565b60208152600061179a6020830184613a65565b634e487b7160e01b600052603260045260246000fd5b600081613eea57613eea613c50565b50600019019056fea26469706673582212209c43f57c0dd1006c072e8f92e225af31218e9f25bbe1ec52ab9d5018d8b2df3764736f6c63430008110033559ed53715d3bb4e833868d1befaf5d894eb100353e9c04fc83767f0f381473eb19546dff01e856fb3f010c267a7b1c60363cf8a4664e21cc89c26224620214e",
    "linkReferences": {}
  },
  "methodIdentifiers": {
    "DEFAULT_ADMIN_ROLE()": "a217fddf",
    "MGR_ROLE()": "444bbb54",
    "MINER_ROLE()": "6394f6e6",
    "OWNER_ROLE()": "e58378bb",
    "PLEDGE_RATE_DECIMAILS()": "34771e62",
    "getLatestPledge(address,address,uint256)": "27a99cb1",
    "getPayToken(address,uint32)": "22eb7931",
    "getPledge(address,address,uint256)": "a68aede0",
    "getPledgeCfg(address,uint32)": "ac346a1f",
    "getPledgeInfo(address,address,uint256)": "70dcbfc6",
    "getPledgeReturn(address,uint32)": "8703ba2b",
    "getPledgeToken(address,uint32)": "6c83fc34",
    "getProfitToken(address,uint32)": "9785207e",
    "getRoleAdmin(bytes32)": "248a9ca3",
    "grantRole(bytes32,address)": "2f2ff15d",
    "hasRole(bytes32,address)": "91d14854",
    "mint(address,uint256,uint256,string)": "bb7fde71",
    "mintPledge(address,uint256,uint256,string,uint32)": "26cbd26b",
    "onERC1155BatchReceived(address,address,uint256[],uint256[],bytes)": "bc197c81",
    "onERC1155Received(address,address,uint256,uint256,bytes)": "f23a6e61",
    "onERC721Received(address,address,uint256,bytes)": "150b7a02",
    "owner()": "8da5cb5b",
    "pledgeToken(address,uint256,uint256,uint32)": "59f1da6c",
    "renounceOwnership()": "715018a6",
    "renounceRole(bytes32,address)": "36568abe",
    "revokeRole(bytes32,address)": "d547741f",
    "setPledgeCfg((address,uint256,uint8,uint256),(address,uint256,uint8,uint256),(address,uint256,uint8,uint256),(uint8,bool,uint256),uint32)": "96c817e7",
    "supportsInterface(bytes4)": "01ffc9a7",
    "transferOwnership(address)": "f2fde38b",
    "updateIncome(address)": "f7c24aa3",
    "withdraw(address,uint256,uint256,address)": "16762eed",
    "withdrawPledge(address,uint256)": "f9dfa79f",
    "withdrawProfit(address,uint256)": "d35c9a07"
  },
  "id": 46
}