{
  "abi": [
    {
      "inputs": [
        {
          "internalType": "address payable",
          "name": "incAddr",
          "type": "address"
        }
      ],
      "stateMutability": "nonpayable",
      "type": "constructor"
    },
    {
      "anonymous": false,
      "inputs": [
        {
          "indexed": false,
          "internalType": "address",
          "name": "sender",
          "type": "address"
        },
        {
          "indexed": true,
          "internalType": "address",
          "name": "tokenAddr",
          "type": "address"
        },
        {
          "indexed": true,
          "internalType": "uint256",
          "name": "tokenId",
          "type": "uint256"
        },
        {
          "indexed": false,
          "internalType": "uint256",
          "name": "tokenAmount",
          "type": "uint256"
        },
        {
          "indexed": false,
          "internalType": "string",
          "name": "cid",
          "type": "string"
        }
      ],
      "name": "Mint",
      "type": "event"
    },
    {
      "anonymous": false,
      "inputs": [
        {
          "indexed": true,
          "internalType": "address",
          "name": "previousOwner",
          "type": "address"
        },
        {
          "indexed": true,
          "internalType": "address",
          "name": "newOwner",
          "type": "address"
        }
      ],
      "name": "OwnershipTransferred",
      "type": "event"
    },
    {
      "anonymous": false,
      "inputs": [
        {
          "indexed": true,
          "internalType": "address",
          "name": "sender",
          "type": "address"
        },
        {
          "indexed": true,
          "internalType": "address",
          "name": "tokenAddr",
          "type": "address"
        },
        {
          "indexed": true,
          "internalType": "uint32",
          "name": "pledgeDays",
          "type": "uint32"
        },
        {
          "indexed": false,
          "internalType": "uint256",
          "name": "tokenId",
          "type": "uint256"
        },
        {
          "indexed": false,
          "internalType": "uint256",
          "name": "amount",
          "type": "uint256"
        }
      ],
      "name": "PledgeToken",
      "type": "event"
    },
    {
      "anonymous": false,
      "inputs": [
        {
          "indexed": true,
          "internalType": "bytes32",
          "name": "role",
          "type": "bytes32"
        },
        {
          "indexed": true,
          "internalType": "bytes32",
          "name": "previousAdminRole",
          "type": "bytes32"
        },
        {
          "indexed": true,
          "internalType": "bytes32",
          "name": "newAdminRole",
          "type": "bytes32"
        }
      ],
      "name": "RoleAdminChanged",
      "type": "event"
    },
    {
      "anonymous": false,
      "inputs": [
        {
          "indexed": true,
          "internalType": "bytes32",
          "name": "role",
          "type": "bytes32"
        },
        {
          "indexed": true,
          "internalType": "address",
          "name": "account",
          "type": "address"
        },
        {
          "indexed": true,
          "internalType": "address",
          "name": "sender",
          "type": "address"
        }
      ],
      "name": "RoleGranted",
      "type": "event"
    },
    {
      "anonymous": false,
      "inputs": [
        {
          "indexed": true,
          "internalType": "bytes32",
          "name": "role",
          "type": "bytes32"
        },
        {
          "indexed": true,
          "internalType": "address",
          "name": "account",
          "type": "address"
        },
        {
          "indexed": true,
          "internalType": "address",
          "name": "sender",
          "type": "address"
        }
      ],
      "name": "RoleRevoked",
      "type": "event"
    },
    {
      "anonymous": false,
      "inputs": [
        {
          "indexed": true,
          "internalType": "address",
          "name": "pledgeAddr",
          "type": "address"
        },
        {
          "indexed": true,
          "internalType": "address",
          "name": "payAddr",
          "type": "address"
        },
        {
          "indexed": true,
          "internalType": "address",
          "name": "profitAddr",
          "type": "address"
        },
        {
          "indexed": false,
          "internalType": "uint32",
          "name": "pledgeDays",
          "type": "uint32"
        }
      ],
      "name": "SetPledgeCfg",
      "type": "event"
    },
    {
      "anonymous": false,
      "inputs": [
        {
          "indexed": true,
          "internalType": "address",
          "name": "sender",
          "type": "address"
        },
        {
          "indexed": true,
          "internalType": "address",
          "name": "newIncome",
          "type": "address"
        },
        {
          "indexed": true,
          "internalType": "address",
          "name": "oldIncome",
          "type": "address"
        }
      ],
      "name": "UpdateIncome",
      "type": "event"
    },
    {
      "anonymous": false,
      "inputs": [
        {
          "indexed": false,
          "internalType": "address",
          "name": "sender",
          "type": "address"
        },
        {
          "indexed": true,
          "internalType": "address",
          "name": "token",
          "type": "address"
        },
        {
          "indexed": true,
          "internalType": "uint256",
          "name": "amount",
          "type": "uint256"
        },
        {
          "indexed": false,
          "internalType": "uint256",
          "name": "tokenId",
          "type": "uint256"
        },
        {
          "indexed": true,
          "internalType": "address",
          "name": "receiver",
          "type": "address"
        }
      ],
      "name": "Withdraw",
      "type": "event"
    },
    {
      "anonymous": false,
      "inputs": [
        {
          "indexed": true,
          "internalType": "address",
          "name": "sender",
          "type": "address"
        },
        {
          "indexed": true,
          "internalType": "address",
          "name": "pledgeToken",
          "type": "address"
        },
        {
          "indexed": false,
          "internalType": "uint256",
          "name": "tokenId",
          "type": "uint256"
        },
        {
          "indexed": false,
          "internalType": "uint256",
          "name": "pledgeAmount",
          "type": "uint256"
        },
        {
          "indexed": false,
          "internalType": "address",
          "name": "profitToken",
          "type": "address"
        },
        {
          "indexed": false,
          "internalType": "uint256",
          "name": "profitAmount",
          "type": "uint256"
        }
      ],
      "name": "WithdrawPledge",
      "type": "event"
    },
    {
      "anonymous": false,
      "inputs": [
        {
          "indexed": true,
          "internalType": "address",
          "name": "sender",
          "type": "address"
        },
        {
          "indexed": true,
          "internalType": "address",
          "name": "profitToken",
          "type": "address"
        },
        {
          "indexed": true,
          "internalType": "uint256",
          "name": "amount",
          "type": "uint256"
        }
      ],
      "name": "WithdrawProfit",
      "type": "event"
    },
    {
      "inputs": [],
      "name": "DEFAULT_ADMIN_ROLE",
      "outputs": [
        {
          "internalType": "bytes32",
          "name": "",
          "type": "bytes32"
        }
      ],
      "stateMutability": "view",
      "type": "function"
    },
    {
      "inputs": [],
      "name": "MGR_ROLE",
      "outputs": [
        {
          "internalType": "bytes32",
          "name": "",
          "type": "bytes32"
        }
      ],
      "stateMutability": "view",
      "type": "function"
    },
    {
      "inputs": [],
      "name": "MINER_ROLE",
      "outputs": [
        {
          "internalType": "bytes32",
          "name": "",
          "type": "bytes32"
        }
      ],
      "stateMutability": "view",
      "type": "function"
    },
    {
      "inputs": [],
      "name": "OWNER_ROLE",
      "outputs": [
        {
          "internalType": "bytes32",
          "name": "",
          "type": "bytes32"
        }
      ],
      "stateMutability": "view",
      "type": "function"
    },
    {
      "inputs": [],
      "name": "PLEDGE_RATE_DECIMAILS",
      "outputs": [
        {
          "internalType": "uint256",
          "name": "",
          "type": "uint256"
        }
      ],
      "stateMutability": "view",
      "type": "function"
    },
    {
      "inputs": [
        {
          "internalType": "address",
          "name": "acc",
          "type": "address"
        },
        {
          "internalType": "address",
          "name": "tokenAddr",
          "type": "address"
        },
        {
          "internalType": "uint256",
          "name": "tokenId",
          "type": "uint256"
        }
      ],
      "name": "getLatestPledge",
      "outputs": [
        {
          "internalType": "uint256",
          "name": "",
          "type": "uint256"
        },
        {
          "internalType": "uint256",
          "name": "",
          "type": "uint256"
        },
        {
          "internalType": "address",
          "name": "",
          "type": "address"
        },
        {
          "internalType": "uint256",
          "name": "",
          "type": "uint256"
        },
        {
          "internalType": "uint256",
          "name": "",
          "type": "uint256"
        }
      ],
      "stateMutability": "nonpayable",
      "type": "function"
    },
    {
      "inputs": [
        {
          "internalType": "address",
          "name": "tokenAddr",
          "type": "address"
        },
        {
          "internalType": "uint32",
          "name": "pledgeDays",
          "type": "uint32"
        }
      ],
      "name": "getPayToken",
      "outputs": [
        {
          "components": [
            {
              "internalType": "address",
              "name": "token",
              "type": "address"
            },
            {
              "internalType": "uint256",
              "name": "tokenId",
              "type": "uint256"
            },
            {
              "internalType": "enum Store.ERCType",
              "name": "ercType",
              "type": "uint8"
            },
            {
              "internalType": "uint256",
              "name": "amount",
              "type": "uint256"
            }
          ],
          "internalType": "struct Store.TokenX",
          "name": "",
          "type": "tuple"
        }
      ],
      "stateMutability": "view",
      "type": "function"
    },
    {
      "inputs": [
        {
          "internalType": "address",
          "name": "acc",
          "type": "address"
        },
        {
          "internalType": "address",
          "name": "tokenAddr",
          "type": "address"
        },
        {
          "internalType": "uint256",
          "name": "tokenId",
          "type": "uint256"
        }
      ],
      "name": "getPledge",
      "outputs": [
        {
          "components": [
            {
              "internalType": "uint256",
              "name": "pledgeAmount",
              "type": "uint256"
            },
            {
              "internalType": "uint256",
              "name": "startTime",
              "type": "uint256"
            },
            {
              "internalType": "uint32",
              "name": "pledgeDays",
              "type": "uint32"
            },
            {
              "internalType": "enum Store.PledgeState",
              "name": "state",
              "type": "uint8"
            },
            {
              "components": [
                {
                  "internalType": "address",
                  "name": "token",
                  "type": "address"
                },
                {
                  "internalType": "uint256",
                  "name": "tokenId",
                  "type": "uint256"
                },
                {
                  "internalType": "enum Store.ERCType",
                  "name": "ercType",
                  "type": "uint8"
                },
                {
                  "internalType": "uint256",
                  "name": "amount",
                  "type": "uint256"
                }
              ],
              "internalType": "struct Store.TokenX",
              "name": "earnToken",
              "type": "tuple"
            },
            {
              "internalType": "uint256",
              "name": "earnRelease",
              "type": "uint256"
            },
            {
              "internalType": "uint256",
              "name": "earnRemain",
              "type": "uint256"
            }
          ],
          "internalType": "struct Store.Pledge",
          "name": "",
          "type": "tuple"
        }
      ],
      "stateMutability": "view",
      "type": "function"
    },
    {
      "inputs": [
        {
          "internalType": "address",
          "name": "tokenAddr",
          "type": "address"
        },
        {
          "internalType": "uint32",
          "name": "pledgeDays",
          "type": "uint32"
        }
      ],
      "name": "getPledgeCfg",
      "outputs": [
        {
          "components": [
            {
              "components": [
                {
                  "internalType": "address",
                  "name": "token",
                  "type": "address"
                },
                {
                  "internalType": "uint256",
                  "name": "tokenId",
                  "type": "uint256"
                },
                {
                  "internalType": "enum Store.ERCType",
                  "name": "ercType",
                  "type": "uint8"
                },
                {
                  "internalType": "uint256",
                  "name": "amount",
                  "type": "uint256"
                }
              ],
              "internalType": "struct Store.TokenX",
              "name": "pledgeToken",
              "type": "tuple"
            },
            {
              "components": [
                {
                  "internalType": "address",
                  "name": "token",
                  "type": "address"
                },
                {
                  "internalType": "uint256",
                  "name": "tokenId",
                  "type": "uint256"
                },
                {
                  "internalType": "enum Store.ERCType",
                  "name": "ercType",
                  "type": "uint8"
                },
                {
                  "internalType": "uint256",
                  "name": "amount",
                  "type": "uint256"
                }
              ],
              "internalType": "struct Store.TokenX",
              "name": "payToken",
              "type": "tuple"
            },
            {
              "components": [
                {
                  "internalType": "address",
                  "name": "token",
                  "type": "address"
                },
                {
                  "internalType": "uint256",
                  "name": "tokenId",
                  "type": "uint256"
                },
                {
                  "internalType": "enum Store.ERCType",
                  "name": "ercType",
                  "type": "uint8"
                },
                {
                  "internalType": "uint256",
                  "name": "amount",
                  "type": "uint256"
                }
              ],
              "internalType": "struct Store.TokenX",
              "name": "profitToken",
              "type": "tuple"
            },
            {
              "components": [
                {
                  "internalType": "enum Store.ProfitType",
                  "name": "profitType",
                  "type": "uint8"
                },
                {
                  "internalType": "bool",
                  "name": "isDayRelease",
                  "type": "bool"
                },
                {
                  "internalType": "uint256",
                  "name": "profit",
                  "type": "uint256"
                }
              ],
              "internalType": "struct Store.PledgeReturn",
              "name": "pledgeReturn",
              "type": "tuple"
            },
            {
              "internalType": "uint32",
              "name": "pledgeDays",
              "type": "uint32"
            }
          ],
          "internalType": "struct Store.PledgeCfg",
          "name": "",
          "type": "tuple"
        }
      ],
      "stateMutability": "view",
      "type": "function"
    },
    {
      "inputs": [
        {
          "internalType": "address",
          "name": "acc",
          "type": "address"
        },
        {
          "internalType": "address",
          "name": "tokenAddr",
          "type": "address"
        },
        {
          "internalType": "uint256",
          "name": "tokenId",
          "type": "uint256"
        }
      ],
      "name": "getPledgeInfo",
      "outputs": [
        {
          "internalType": "uint256",
          "name": "",
          "type": "uint256"
        },
        {
          "internalType": "uint256",
          "name": "",
          "type": "uint256"
        },
        {
          "internalType": "uint32",
          "name": "",
          "type": "uint32"
        },
        {
          "internalType": "address",
          "name": "",
          "type": "address"
        },
        {
          "internalType": "uint256",
          "name": "",
          "type": "uint256"
        },
        {
          "internalType": "uint256",
          "name": "",
          "type": "uint256"
        }
      ],
      "stateMutability": "view",
      "type": "function"
    },
    {
      "inputs": [
        {
          "internalType": "address",
          "name": "tokenAddr",
          "type": "address"
        },
        {
          "internalType": "uint32",
          "name": "pledgeDays",
          "type": "uint32"
        }
      ],
      "name": "getPledgeReturn",
      "outputs": [
        {
          "components": [
            {
              "internalType": "enum Store.ProfitType",
              "name": "profitType",
              "type": "uint8"
            },
            {
              "internalType": "bool",
              "name": "isDayRelease",
              "type": "bool"
            },
            {
              "internalType": "uint256",
              "name": "profit",
              "type": "uint256"
            }
          ],
          "internalType": "struct Store.PledgeReturn",
          "name": "",
          "type": "tuple"
        }
      ],
      "stateMutability": "view",
      "type": "function"
    },
    {
      "inputs": [
        {
          "internalType": "address",
          "name": "tokenAddr",
          "type": "address"
        },
        {
          "internalType": "uint32",
          "name": "pledgeDays",
          "type": "uint32"
        }
      ],
      "name": "getPledgeToken",
      "outputs": [
        {
          "components": [
            {
              "internalType": "address",
              "name": "token",
              "type": "address"
            },
            {
              "internalType": "uint256",
              "name": "tokenId",
              "type": "uint256"
            },
            {
              "internalType": "enum Store.ERCType",
              "name": "ercType",
              "type": "uint8"
            },
            {
              "internalType": "uint256",
              "name": "amount",
              "type": "uint256"
            }
          ],
          "internalType": "struct Store.TokenX",
          "name": "",
          "type": "tuple"
        }
      ],
      "stateMutability": "view",
      "type": "function"
    },
    {
      "inputs": [
        {
          "internalType": "address",
          "name": "tokenAddr",
          "type": "address"
        },
        {
          "internalType": "uint32",
          "name": "pledgeDays",
          "type": "uint32"
        }
      ],
      "name": "getProfitToken",
      "outputs": [
        {
          "components": [
            {
              "internalType": "address",
              "name": "token",
              "type": "address"
            },
            {
              "internalType": "uint256",
              "name": "tokenId",
              "type": "uint256"
            },
            {
              "internalType": "enum Store.ERCType",
              "name": "ercType",
              "type": "uint8"
            },
            {
              "internalType": "uint256",
              "name": "amount",
              "type": "uint256"
            }
          ],
          "internalType": "struct Store.TokenX",
          "name": "",
          "type": "tuple"
        }
      ],
      "stateMutability": "view",
      "type": "function"
    },
    {
      "inputs": [
        {
          "internalType": "bytes32",
          "name": "role",
          "type": "bytes32"
        }
      ],
      "name": "getRoleAdmin",
      "outputs": [
        {
          "internalType": "bytes32",
          "name": "",
          "type": "bytes32"
        }
      ],
      "stateMutability": "view",
      "type": "function"
    },
    {
      "inputs": [
        {
          "internalType": "bytes32",
          "name": "role",
          "type": "bytes32"
        },
        {
          "internalType": "address",
          "name": "account",
          "type": "address"
        }
      ],
      "name": "grantRole",
      "outputs": [],
      "stateMutability": "nonpayable",
      "type": "function"
    },
    {
      "inputs": [
        {
          "internalType": "bytes32",
          "name": "role",
          "type": "bytes32"
        },
        {
          "internalType": "address",
          "name": "account",
          "type": "address"
        }
      ],
      "name": "hasRole",
      "outputs": [
        {
          "internalType": "bool",
          "name": "",
          "type": "bool"
        }
      ],
      "stateMutability": "view",
      "type": "function"
    },
    {
      "inputs": [
        {
          "internalType": "address",
          "name": "tokenAddr",
          "type": "address"
        },
        {
          "internalType": "uint256",
          "name": "tokenId",
          "type": "uint256"
        },
        {
          "internalType": "uint256",
          "name": "tokenAmount",
          "type": "uint256"
        },
        {
          "internalType": "string",
          "name": "cid",
          "type": "string"
        }
      ],
      "name": "mint",
      "outputs": [],
      "stateMutability": "payable",
      "type": "function"
    },
    {
      "inputs": [
        {
          "internalType": "address",
          "name": "tokenAddr",
          "type": "address"
        },
        {
          "internalType": "uint256",
          "name": "tokenId",
          "type": "uint256"
        },
        {
          "internalType": "uint256",
          "name": "tokenAmount",
          "type": "uint256"
        },
        {
          "internalType": "string",
          "name": "cid",
          "type": "string"
        },
        {
          "internalType": "uint32",
          "name": "pledgeDays",
          "type": "uint32"
        }
      ],
      "name": "mintPledge",
      "outputs": [],
      "stateMutability": "payable",
      "type": "function"
    },
    {
      "inputs": [
        {
          "internalType": "address",
          "name": "",
          "type": "address"
        },
        {
          "internalType": "address",
          "name": "",
          "type": "address"
        },
        {
          "internalType": "uint256[]",
          "name": "",
          "type": "uint256[]"
        },
        {
          "internalType": "uint256[]",
          "name": "",
          "type": "uint256[]"
        },
        {
          "internalType": "bytes",
          "name": "",
          "type": "bytes"
        }
      ],
      "name": "onERC1155BatchReceived",
      "outputs": [
        {
          "internalType": "bytes4",
          "name": "",
          "type": "bytes4"
        }
      ],
      "stateMutability": "nonpayable",
      "type": "function"
    },
    {
      "inputs": [
        {
          "internalType": "address",
          "name": "",
          "type": "address"
        },
        {
          "internalType": "address",
          "name": "",
          "type": "address"
        },
        {
          "internalType": "uint256",
          "name": "",
          "type": "uint256"
        },
        {
          "internalType": "uint256",
          "name": "",
          "type": "uint256"
        },
        {
          "internalType": "bytes",
          "name": "",
          "type": "bytes"
        }
      ],
      "name": "onERC1155Received",
      "outputs": [
        {
          "internalType": "bytes4",
          "name": "",
          "type": "bytes4"
        }
      ],
      "stateMutability": "nonpayable",
      "type": "function"
    },
    {
      "inputs": [
        {
          "internalType": "address",
          "name": "",
          "type": "address"
        },
        {
          "internalType": "address",
          "name": "",
          "type": "address"
        },
        {
          "internalType": "uint256",
          "name": "",
          "type": "uint256"
        },
        {
          "internalType": "bytes",
          "name": "",
          "type": "bytes"
        }
      ],
      "name": "onERC721Received",
      "outputs": [
        {
          "internalType": "bytes4",
          "name": "",
          "type": "bytes4"
        }
      ],
      "stateMutability": "nonpayable",
      "type": "function"
    },
    {
      "inputs": [],
      "name": "owner",
      "outputs": [
        {
          "internalType": "address",
          "name": "",
          "type": "address"
        }
      ],
      "stateMutability": "view",
      "type": "function"
    },
    {
      "inputs": [
        {
          "internalType": "address",
          "name": "tokenAddr",
          "type": "address"
        },
        {
          "internalType": "uint256",
          "name": "tokenId",
          "type": "uint256"
        },
        {
          "internalType": "uint256",
          "name": "tokenAmount",
          "type": "uint256"
        },
        {
          "internalType": "uint32",
          "name": "pledgeDays",
          "type": "uint32"
        }
      ],
      "name": "pledgeToken",
      "outputs": [],
      "stateMutability": "nonpayable",
      "type": "function"
    },
    {
      "inputs": [],
      "name": "renounceOwnership",
      "outputs": [],
      "stateMutability": "nonpayable",
      "type": "function"
    },
    {
      "inputs": [
        {
          "internalType": "bytes32",
          "name": "role",
          "type": "bytes32"
        },
        {
          "internalType": "address",
          "name": "account",
          "type": "address"
        }
      ],
      "name": "renounceRole",
      "outputs": [],
      "stateMutability": "nonpayable",
      "type": "function"
    },
    {
      "inputs": [
        {
          "internalType": "bytes32",
          "name": "role",
          "type": "bytes32"
        },
        {
          "internalType": "address",
          "name": "account",
          "type": "address"
        }
      ],
      "name": "revokeRole",
      "outputs": [],
      "stateMutability": "nonpayable",
      "type": "function"
    },
    {
      "inputs": [
        {
          "components": [
            {
              "internalType": "address",
              "name": "token",
              "type": "address"
            },
            {
              "internalType": "uint256",
              "name": "tokenId",
              "type": "uint256"
            },
            {
              "internalType": "enum Store.ERCType",
              "name": "ercType",
              "type": "uint8"
            },
            {
              "internalType": "uint256",
              "name": "amount",
              "type": "uint256"
            }
          ],
          "internalType": "struct Store.TokenX",
          "name": "pledgeToken",
          "type": "tuple"
        },
        {
          "components": [
            {
              "internalType": "address",
              "name": "token",
              "type": "address"
            },
            {
              "internalType": "uint256",
              "name": "tokenId",
              "type": "uint256"
            },
            {
              "internalType": "enum Store.ERCType",
              "name": "ercType",
              "type": "uint8"
            },
            {
              "internalType": "uint256",
              "name": "amount",
              "type": "uint256"
            }
          ],
          "internalType": "struct Store.TokenX",
          "name": "payToken",
          "type": "tuple"
        },
        {
          "components": [
            {
              "internalType": "address",
              "name": "token",
              "type": "address"
            },
            {
              "internalType": "uint256",
              "name": "tokenId",
              "type": "uint256"
            },
            {
              "internalType": "enum Store.ERCType",
              "name": "ercType",
              "type": "uint8"
            },
            {
              "internalType": "uint256",
              "name": "amount",
              "type": "uint256"
            }
          ],
          "internalType": "struct Store.TokenX",
          "name": "profitToken",
          "type": "tuple"
        },
        {
          "components": [
            {
              "internalType": "enum Store.ProfitType",
              "name": "profitType",
              "type": "uint8"
            },
            {
              "internalType": "bool",
              "name": "isDayRelease",
              "type": "bool"
            },
            {
              "internalType": "uint256",
              "name": "profit",
              "type": "uint256"
            }
          ],
          "internalType": "struct Store.PledgeReturn",
          "name": "pledgeReturn",
          "type": "tuple"
        },
        {
          "internalType": "uint32",
          "name": "pledgeDays",
          "type": "uint32"
        }
      ],
      "name": "setPledgeCfg",
      "outputs": [],
      "stateMutability": "nonpayable",
      "type": "function"
    },
    {
      "inputs": [
        {
          "internalType": "bytes4",
          "name": "interfaceId",
          "type": "bytes4"
        }
      ],
      "name": "supportsInterface",
      "outputs": [
        {
          "internalType": "bool",
          "name": "",
          "type": "bool"
        }
      ],
      "stateMutability": "view",
      "type": "function"
    },
    {
      "inputs": [
        {
          "internalType": "address",
          "name": "newOwner",
          "type": "address"
        }
      ],
      "name": "transferOwnership",
      "outputs": [],
      "stateMutability": "nonpayable",
      "type": "function"
    },
    {
      "inputs": [
        {
          "internalType": "address payable",
          "name": "income",
          "type": "address"
        }
      ],
      "name": "updateIncome",
      "outputs": [],
      "stateMutability": "nonpayable",
      "type": "function"
    },
    {
      "inputs": [
        {
          "internalType": "address",
          "name": "tokenAddr",
          "type": "address"
        },
        {
          "internalType": "uint256",
          "name": "tokenId",
          "type": "uint256"
        },
        {
          "internalType": "uint256",
          "name": "amount",
          "type": "uint256"
        },
        {
          "internalType": "address",
          "name": "receiver",
          "type": "address"
        }
      ],
      "name": "withdraw",
      "outputs": [],
      "stateMutability": "nonpayable",
      "type": "function"
    },
    {
      "inputs": [
        {
          "internalType": "address",
          "name": "plgToken",
          "type": "address"
        },
        {
          "internalType": "uint256",
          "name": "tokenId",
          "type": "uint256"
        }
      ],
      "name": "withdrawPledge",
      "outputs": [],
      "stateMutability": "nonpayable",
      "type": "function"
    },
    {
      "inputs": [
        {
          "internalType": "address",
          "name": "pledgeToken",
          "type": "address"
        },
        {
          "internalType": "uint256",
          "name": "tokenId",
          "type": "uint256"
        }
      ],
      "name": "withdrawProfit",
      "outputs": [],
      "stateMutability": "nonpayable",
      "type": "function"
    }
  ],
  "bytecode": {
    "object": "0x6080346200027657601f6200337138819003918201601f1916830192916001600160401b038411838510176200027b57808392604095865283396020928391810103126200027657516001600160a01b038082169290918390036200027657600280546001600160a01b0319808216339081179093559360009291167f8be0079c531659141344cd1fd0a4f28419497f9722a3daafe3b4186f6b6457e08380a37fa952726ef2588ad078edf35b066f7c7406e207cb0003bbaba8cb53eba9553e7291828252600390818152600191828885200154947fb19546dff01e856fb3f010c267a7b1c60363cf8a4664e21cc89c26224620214e9081858b88200155817fbd79b86ffe0ab8e8776151514217cd7cacd52c909f66475c3af44e129f0b00ff9782898980a4818a7f559ed53715d3bb4e833868d1befaf5d894eb100353e9c04fc83767f0f381473e8099818a52838980858d200154948c2001558980a4808652898620338752845260ff8a87205416156200023d575b50808552818352888520338652835260ff89862054161562000204575b50848452808252878420338552825260ff888520541615620001c9575b8787876004541617600455516130bf9081620002928239f35b848452815286832090338452528582209060ff19825416179055339160008051602062003351833981519152339280a43880808080620001b0565b80855281835288852033865283528885208460ff1982541617905533903390600080516020620033518339815191528780a43862000193565b80865282845289862033875284528986208560ff1982541617905533903390600080516020620033518339815191528880a43862000176565b600080fd5b634e487b7160e01b600052604160045260246000fdfe608080604052600436101561001357600080fd5b600090813560e01c90816301ffc9a714611d2357508063150b7a0214611ccd57806316762eed14611a3d57806322eb793114611a1c578063248a9ca3146119ef57806326cbd26b1461154257806327a99cb1146114905780632f2ff15d146113dd57806334771e62146113c057806336568abe1461132d578063444bbb54146112f257806359f1da6c146111dc5780636394f6e6146111a15780636c83fc341461117457806370dcbfc61461109d578063715018a61461103f5780638703ba2b14610fff5780638da5cb5b14610fd657806391d1485414610f8a57806396c817e71461099d5780639785207e1461095a578063a217fddf1461093e578063a68aede014610815578063ac346a1f14610786578063bb7fde711461074d578063bc197c81146106c4578063d35c9a07146105a8578063d547741f14610567578063e58378bb1461052c578063f23a6e61146104d2578063f2fde38b1461040c578063f7c24aa31461035f5763f9dfa79f1461018c57600080fd5b3461035c57604036600319011261035c576101a5611d78565b90602435916101b5838233612b7b565b92600284015491602092600260ff82861c166101d081611f48565b03610322576101fa60406101f363ffffffff60088a019489865496551685612f4c565b51016124f8565b9061022f600388019260018060a01b039283855416908760ff60058d01541682610310575b505050503390868a54918761299e565b156102d3578660078261028a97989954945416910154906040519386855288850152604084015260608301528216907f7f17ff0c099057bb0e700cc8906e38df4274727452016bb115c5fa3138a6de9460803392a33361302c565b9033835260018152604083209183525280600860408220828155826001820155826002820155826003820155826004820155826005820155826006820155826007820155015580f35b60405162461bcd60e51b81526004810186905260156024820152741dda5d1a191c985dd41b195919d94819985a5b1959605a1b6044820152606490fd5b610319936128e8565b3880878161021f565b60405162461bcd60e51b8152600481018590526012602482015271506c6564676520756e66696e69736865642160701b6044820152606490fd5b80fd5b503461035c57602036600319011261035c576004356001600160a01b03818116918290036104085761038f61238c565b81156103d457600454826001600160601b0360a01b8216176004551690337facfdf2068f2b4dda3f4970ef49a4cad3a0a7735a3badb3577bcabb3a889807388480a480f35b60405162461bcd60e51b815260206004820152600c60248201526b7a65726f206164647265737360a01b6044820152606490fd5b8280fd5b503461035c57602036600319011261035c57610426611d78565b61042e61238c565b6001600160a01b0390811690811561047e57600254826001600160601b0360a01b821617600255167f8be0079c531659141344cd1fd0a4f28419497f9722a3daafe3b4186f6b6457e0600080a380f35b60405162461bcd60e51b815260206004820152602660248201527f4f776e61626c653a206e6577206f776e657220697320746865207a65726f206160448201526564647265737360d01b6064820152608490fd5b503461035c5760a036600319011261035c576104ec611d78565b506104f5611d8e565b506084356001600160401b03811161052857610515903690600401611e5f565b5060405163f23a6e6160e01b8152602090f35b5080fd5b503461035c578060031936011261035c5760206040517fb19546dff01e856fb3f010c267a7b1c60363cf8a4664e21cc89c26224620214e8152f35b503461035c57604036600319011261035c576105a5600435610587611d8e565b9080845260036020526105a06001604086200154611fdc565b612316565b80f35b503461035c57604036600319011261035c576105c2611d78565b90602435916105d2838233612b7b565b600160ff6105ec60028401549463ffffffff861690612f4c565b9360201c166105fa81611f48565b14610684575b60080192835491821561064b576040849101519455604060018060a01b038551169401516005811015610637576105a593946128e8565b634e487b7160e01b84526021600452602484fd5b60405162461bcd60e51b81526020600482015260116024820152702737ba3434b733903bb4ba34323930bbbf60791b6044820152606490fd5b6020606083015101516106005760405162461bcd60e51b815260206004820152600b60248201526a1b9bdd08195e1c1a5c995960aa1b6044820152606490fd5b503461035c5760a036600319011261035c576106de611d78565b506106e7611d8e565b506001600160401b0360443581811161040857610708903690600401611f76565b5060643581811161040857610721903690600401611f76565b506084359081116105285761073a903690600401611e5f565b5060405163bc197c8160e01b8152602090f35b50608036600319011261035c57610762611d78565b506064356001600160401b03811161052857610782903690600401611e5f565b5080f35b503461035c57604036600319011261035c576102006107bd6107a6611d78565b6107ae611eb5565b906107b7612f05565b50612f4c565b63ffffffff6080604051926107d3848251611ec8565b6107e4602082015183860190611ec8565b6107f76040820151610100860190611ec8565b61080a6060820151610180860190611f52565b0151166101e0820152f35b503461035c5761086e60406101409261082d36611f13565b8451959161083a87611db7565b8487528460c0602098828a820152828982015282606082015261085b612b49565b60808201528260a082015201528361302c565b6001600160a01b03909116825260018452828220908252835220604051919061089683611db7565b8054835261092e6001820154928085019384526002830154604086019060ff63ffffffff918281168452841c169160608801926108d281611f48565b83526108e060038701612441565b9360808901948552600860078801549760a08b0198895201549760c08a0198895260405199518a525190890152511660408701525161091e81611f48565b6060860152516080850190611ec8565b5161010083015251610120820152f35b503461035c578060031936011261035c57602090604051908152f35b503461035c57604036600319011261035c576080604061098c61097b611d78565b610983611eb5565b906107b7612b49565b015161099b6040518092611ec8565bf35b503461035c573660031901610200811261052857608013610f67576040516109c481611ded565b6004356001600160a01b0381168103610f6757815260243560208201526044356005811015610f6757604082015260643560608201526080366083190112610f6757604051610a1281611ded565b6084356001600160a01b0381168103610f6757815260a435602082015260c4356005811015610f6757604082015260e4356060820152608036610103190112610f675760405190610a6282611ded565b610104356001600160a01b0381168103610f67578252610124356020830152610144356005811015610f67576040830152610164356060830152606061018319360112610f865760405192606084018481106001600160401b03821117610f7057604052610184356003811015610f6c5784526101a4358015158103610f6c5760208501526101c43560408501526101e4359363ffffffff85168503610f67577f559ed53715d3bb4e833868d1befaf5d894eb100353e9c04fc83767f0f381473e86526003602052604086203360005260205260ff6040600020541615610f3257815160405160609190911b6bffffffffffffffffffffffff19166020820190815260e087901b6001600160e01b031916603483015290610b9081603881015b03601f198101835282611e3e565b519020808752602087905260408720546001600160a01b0316610f025760408301516005811015610eee576002148015610ed7575b610e6e575b60028251610bd781611f48565b610be081611f48565b14610dfd575b60405191610bf383611dd2565b838352846020840152856040840152606083015263ffffffff8616608083015286528560205260408620815160018060a01b038151166001600160601b0360a01b8354161782556020810151600183015560408101516005811015610de95790606091600284019060ff80198354169116179055015160038201556004810160208301519060018060a01b038251166001600160601b0360a01b8254161790556020810151600583015560408101516005811015610de95790606091600684019060ff80198354169116179055015160078201556008810160408301519060018060a01b038251166001600160601b0360a01b82541617905560208101516009830155600a820160408201516005811015610dd557600e7f643d00b13444c16cafc3114d2cb054886ff44b5fe7c0f1b4eddcaf26983cbeb7969460606020979563ffffffff9560809560ff801983541691161790550151600b8201556040600c82016060870151908151610d6681611f48565b610d6f81611f48565b815460ff61ff008d860151151560081b1692169061ffff1916171790550151600d820155019201511663ffffffff1982541617905560018060a01b039051169260018060a01b039051169360018060a01b039051169463ffffffff60405191168152a480f35b634e487b7160e01b8a52602160045260248afd5b634e487b7160e01b89526021600452602489fd5b835185516001600160a01b03908116911614610be65760405162461bcd60e51b815260206004820152602d60248201527f50726f666974547970652e50617950726963655065723d3e706179546f6b656e60448201526c1e9eb83937b334ba2a37b5b2b760991b6064820152608490fd5b8151610e7981611f48565b610e8281611f48565b610bca5760405162461bcd60e51b8152602060048201526024808201527f4e465420706c65646765206d75737420757365205061795072696365506572206044820152637479706560e01b6064820152608490fd5b5060408301516005811015610eee57600314610bc5565b634e487b7160e01b88526021600452602488fd5b60405162461bcd60e51b8152602060048201526008602482015267657869737465642160c01b6044820152606490fd5b60405162461bcd60e51b815260206004820152600d60248201526c27b7363c9036b0b730b3b2b93f60991b6044820152606490fd5b600080fd5b8580fd5b634e487b7160e01b600052604160045260246000fd5b8380fd5b503461035c57604036600319011261035c576040610fa6611d8e565b9160043581526003602052209060018060a01b0316600052602052602060ff604060002054166040519015158152f35b503461035c578060031936011261035c576002546040516001600160a01b039091168152602090f35b503461035c57604036600319011261035c5760608061103061101f611d78565b611027611eb5565b906107b7612ee6565b015161099b6040518092611f52565b503461035c578060031936011261035c5761105861238c565b600280546001600160a01b031981169091556000906001600160a01b03167f8be0079c531659141344cd1fd0a4f28419497f9722a3daafe3b4186f6b6457e08280a380f35b503461035c576110bd604060c0926110b436611f13565b9082959261302c565b6001600160a01b039384168252600160209081528383209183525220604051906110e682611db7565b80548252600181015492602083019384526002820154604084019160ff63ffffffff92838116855260201c1661111b81611f48565b606086015261112c60038501612441565b9182608087015260086007860154958660a0890152015495868982015251965193511691511691604051958652602086015260408501526060840152608083015260a0820152f35b503461035c57604036600319011261035c57608061119361097b611d78565b5161099b6040518092611ec8565b503461035c578060031936011261035c5760206040517fa952726ef2588ad078edf35b066f7c7406e207cb0003bbaba8cb53eba9553e728152f35b503461035c57608036600319011261035c576111f6611d78565b60643563ffffffff90818116809103610f67576105a59261123482600761123e94149081156112e7575b81156112dc575b81156112d1575b506128a3565b602435903361302c565b338452600160205260408420908452602052604083209060c0600860ff6040519361126885611db7565b85548552600186015460208601526002860154908116604086015260201c1693606084019461129681611f48565b85526112a460038201612441565b6080850152600781015460a08501520154910152516112c281611f48565b6112cb81611f48565b1561248c565b60b49150143861122e565b605a81149150611227565b601e81149150611220565b503461035c578060031936011261035c5760206040517f559ed53715d3bb4e833868d1befaf5d894eb100353e9c04fc83767f0f381473e8152f35b503461035c57604036600319011261035c57611347611d8e565b336001600160a01b03821603611363576105a590600435612316565b60405162461bcd60e51b815260206004820152602f60248201527f416363657373436f6e74726f6c3a2063616e206f6e6c792072656e6f756e636560448201526e103937b632b9903337b91039b2b63360891b6064820152608490fd5b503461035c578060031936011261035c5760206040516127108152f35b503461035c57604036600319011261035c576004356113fa611d8e565b81835260036020526114126001604085200154611fdc565b8183526003602052604083209060018060a01b0316908160005260205260ff6040600020541615611441578280f35b818352600360205260408320816000526020526040600020600160ff1982541617905533917f2f8788117e7eff1d82e926ec794901d17c78024a50270940304540a733656f0d8480a438808280f35b503461035c5760a06114aa6114a436611f13565b91612b7b565b6040516114b681611db7565b8154815260018201546020820152600282015491604082019260ff63ffffffff91828116865260201c166114e981611f48565b60608401526114fa60038301612441565b90816080850152600860078401549384888701520154938460c08201525194511690600180871b03905116906040519485526020850152604084015260608301526080820152f35b5060a036600319011261035c57611557611d78565b606480356001600160401b038111610f8657611577903690600401611e5f565b63ffffffff6084351660843503610f6757611595602435843361302c565b3385526001602052604085209085526020526115f2604085206040516115ba81611db7565b815481526001820154602082015260c0600860ff600285015463ffffffff8116604086015260201c1693606084019461129681611f48565b6115fe60843584612f4c565b8051516001600160a01b0316156119b25761161c602082015161251d565b1561196e5761163330836044356024358551612718565b1561193b57604061164591015161286a565b156118f857604051602435916001600160a01b038516917fad2943b15836caf43698401a62af4738985fb33dd979844d99d37f5293f037d391819061168e9060443533846124d1565b0390a3600763ffffffff608435161480156118e6575b80156118d4575b80156118c2575b6116bb906128a3565b604435906116cc602435843361302c565b906116d960843585612f4c565b906116e760408351016124f8565b60058110156118ae57600214611856575b5060400151906040519161170b83611db7565b83835242602084015263ffffffff6084351660408401526001606084015260808301528460a08301528460c0830152338552600160205260408520908552602052604084209080518255602081015160018301556002820163ffffffff60408301511681549064ff00000000606085015161178581611f48565b61178e81611f48565b60201b169164ffffffffff1916171790556003820160808201519060018060a01b038251166001600160601b0360a01b825416179055602081015160048401556005830160408201516005811015610eee5760c0926008949260609260ff801983541691161790550151600685015560a081015160078501550151910155604051906024358252602082015263ffffffff608435169160018060a01b0316907f7ea654199703f048d1efb719754a27859d7289ddb9088d0a8e14e413ada7192a60403392a480f35b9092506024351561186c575060019160406116f8565b60405162461bcd60e51b815260206004820152601860248201527f696e7661696c65642045524337323120746f6b656e49647e00000000000000006044820152fd5b634e487b7160e01b87526021600452602487fd5b5060843563ffffffff1660b4146116b2565b50605a63ffffffff60843516146116ab565b50601e63ffffffff60843516146116a4565b5060405162461bcd60e51b815260206004820152601860248201527f61697244726f70546f6b656e20756e66696e69736865642100000000000000006044820152fd5b60405162461bcd60e51b815260206004820152600c60248201526b6d696e74206661696c65642160a01b60448201528390fd5b60405162461bcd60e51b815260206004820152601760248201527f706179546f6b656e2068616e646c65206661696c65642100000000000000000060448201528390fd5b60405162461bcd60e51b81526020600482015260166024820152756e6f74207468697320706c6564676520746f6b656e2160501b60448201528390fd5b503461035c57602036600319011261035c5760016040602092600435815260038452200154604051908152f35b503461035c57604036600319011261035c576080602061098c61097b611d78565b503461035c57608036600319011261035c57611a57611d78565b6001600160a01b0360643581811692604435926024359190858403611cc957611a7e61238c565b8515611c95571691839083611aeb5750859085828215611ae2575b839283928392f115611ad757611ad160008051602061306a833981519152915b60408051338152602081019290925290918291820190565b0390a480f35b6040513d86823e3d90fd5b506108fc611a99565b8683611b82575060405163a9059cbb60e01b81526001600160a01b0391909116600482015260248101919091529060208260448189875af1908115611b775760008051602061306a83398151915292611ad192611b49575b50611ab9565b611b699060203d8111611b70575b611b618183611e3e565b810190612505565b5038611b43565b503d611b57565b6040513d88823e3d90fd5b9115611c115760405190611b9582611e23565b828252843b1561040857838391611bc388946040519586948594637921219560e11b8652306004870161296b565b038183885af18015611c0657611bee575b5050611ad160008051602061306a83398151915291611ab9565b611bf790611da4565b611c02578438611bd4565b8480fd5b6040513d84823e3d90fd5b90833b1561035c576040516323b872dd60e01b81523060048201526001600160a01b03929092166024830152604482018390528160648183875af18015611b7757611c70575b50611ad160008051602061306a83398151915291611ab9565b60008051602061306a8339815191529195611c8d611ad192611da4565b959150611c57565b60405162461bcd60e51b815260206004820152600c60248201526b32b939103932b1b2b4bb32b960a11b6044820152606490fd5b8680fd5b503461035c57608036600319011261035c57611ce7611d78565b50611cf0611d8e565b506064356001600160401b03811161052857611d10903690600401611e5f565b50604051630a85bd0160e11b8152602090f35b9050346105285760203660031901126105285760043563ffffffff60e01b81168091036104085760209250637965db0b60e01b8114908115611d67575b5015158152f35b6301ffc9a760e01b14905038611d60565b600435906001600160a01b0382168203610f6757565b602435906001600160a01b0382168203610f6757565b6001600160401b038111610f7057604052565b60e081019081106001600160401b03821117610f7057604052565b60a081019081106001600160401b03821117610f7057604052565b608081019081106001600160401b03821117610f7057604052565b606081019081106001600160401b03821117610f7057604052565b602081019081106001600160401b03821117610f7057604052565b90601f801991011681019081106001600160401b03821117610f7057604052565b81601f82011215610f67578035906001600160401b038211610f705760405192611e93601f8401601f191660200185611e3e565b82845260208383010111610f6757816000926020809301838601378301015290565b6024359063ffffffff82168203610f6757565b80516001600160a01b031682526020808201519083015260408101516005811015611efd576040830152606090810151910152565b634e487b7160e01b600052602160045260246000fd5b6060906003190112610f67576001600160a01b03906004358281168103610f6757916024359081168103610f67579060443590565b60031115611efd57565b604080918051611f6181611f48565b84526020810151151560208501520151910152565b9080601f83011215610f67578135906001600160401b038211610f70578160051b60405193602093611faa85840187611e3e565b85528380860192820101928311610f67578301905b828210611fcd575050505090565b81358152908301908301611fbf565b60009080825260209060038252604092838120338252835260ff8482205416156120065750505050565b3384519261201384611e08565b602a845284840190863683378451156122ba57603082538451926001938410156122a6576078602187015360295b84811161223c57506121fa5786519261205984611ded565b604284528684019460603687378451156121e6576030865384518210156121e65790607860218601536041915b8183116121785750505061213657612132938693612116936121076048946120de9a519a8b957f416363657373436f6e74726f6c3a206163636f756e74200000000000000000008c88015251809260378801906122ce565b8401917001034b99036b4b9b9b4b733903937b6329607d1b6037840152518093868401906122ce565b01036028810187520185611e3e565b5192839262461bcd60e51b8452600484015260248301906122f1565b0390fd5b60648587519062461bcd60e51b825280600483015260248201527f537472696e67733a20686578206c656e67746820696e73756666696369656e746044820152fd5b909192600f811660108110156121d2576f181899199a1a9b1b9c1cb0b131b232b360811b901a6121a8858861241a565b5360041c9280156121be57600019019190612086565b634e487b7160e01b82526011600452602482fd5b634e487b7160e01b83526032600452602483fd5b634e487b7160e01b81526032600452602490fd5b60648688519062461bcd60e51b825280600483015260248201527f537472696e67733a20686578206c656e67746820696e73756666696369656e746044820152fd5b90600f81166010811015612292576f181899199a1a9b1b9c1cb0b131b232b360811b901a61226a838961241a565b5360041c90801561227e5760001901612041565b634e487b7160e01b86526011600452602486fd5b634e487b7160e01b87526032600452602487fd5b634e487b7160e01b85526032600452602485fd5b634e487b7160e01b84526032600452602484fd5b60005b8381106122e15750506000910152565b81810151838201526020016122d1565b9060209161230a815180928185528580860191016122ce565b601f01601f1916010190565b906000918083526003602052604083209160018060a01b03169182845260205260ff60408420541661234757505050565b8083526003602052604083208284526020526040832060ff1981541690557ff6391f5c32d9c69d2a47ea670b442974b53935d1edc7fd64eb21e047a839171b339380a4565b6002546001600160a01b031633036123a057565b606460405162461bcd60e51b815260206004820152602060248201527f4f776e61626c653a2063616c6c6572206973206e6f7420746865206f776e65726044820152fd5b818102929181159184041417156123f757565b634e487b7160e01b600052601160045260246000fd5b919082018092116123f757565b90815181101561242b570160200190565b634e487b7160e01b600052603260045260246000fd5b9060405161244e81611ded565b82546001600160a01b031681526001830154602082015260028301549092839160ff166005811015611efd5760609160039160408501520154910152565b1561249357565b60405162461bcd60e51b8152602060048201526016602482015275283632b233b4b7339037b910283632b233b2b217171760511b6044820152606490fd5b6124f5939260609260018060a01b03168252602082015281604082015201906122f1565b90565b516005811015611efd5790565b90816020910312610f6757518015158103610f675790565b6060810180511561271157600480546001600160a01b039290831680156126d95781516003810290808204600314901517156126c4576005900494848151161580612699575b156125dc5750505134106125a3576000809381938293541682821561259a575bf11561258e57600190565b6040513d6000823e3d90fd5b506108fc612583565b60649060206040519162461bcd60e51b8352820152601260248201527136b9b3973b30b63ab2903a37b7903637bbbf60711b6044820152fd5b51604080516323b872dd60e01b8152338187019081526001600160a01b039094166020858101919091529184019790975293959485935016908290600090829060600103925af190811561258e5760009161267b575b501561263e5750600190565b60649060206040519162461bcd60e51b835282015260166024820152754552433230207472616e73666572206661696c65642160501b6044820152fd5b612693915060203d8111611b7057611b618183611e3e565b38612632565b50604081015160058110156126af578414612563565b602185634e487b7160e01b6000525260246000fd5b601184634e487b7160e01b6000525260246000fd5b60405162461bcd60e51b81526020818501526011602482015270696e636f6d6520616464723d7a65726f2160781b6044820152606490fd5b5050600190565b9093919360409384830180516005811015611efd576001036127ab57505090516001600160a01b0316939050833b15610f675782516340c10f1960e01b81526001600160a01b0390921660048301526024820152916000908390818381604481015b03925af19081156127a15750612792575b505b600190565b61279b90611da4565b3861278b565b513d6000823e3d90fd5b809691939296516005811015611efd576002036127f9575050516001600160a01b0316803b15610f675761277a94600080948651978895869485936334ff261960e21b8552600485016124d1565b9592919095516005811015611efd5760030361285f57516001600160a01b0390811691823b15610f675760009461277a86928851998a978896879563bb7fde7160e01b8752166004860152602485015260448401526080606484015260848301906122f1565b505050505050600090565b6060810180511561271157815160408301516001600160a01b03909116916005821015611efd5760206124f5940151905191339361299e565b156128aa57565b60405162461bcd60e51b815260206004820152601660248201527504d75737420626520372c33302c36302c39302c3138360541b6044820152606490fd5b9190836128f79233928561299e565b1561292d576001600160a01b0316337f7d11196ad7aec5325589a029930cc3b3c650fa71f6d6bca14bd1c3f4454e99be600080a4565b60405162461bcd60e51b8152602060048201526016602482015275776974686472617750726f666974206661696c65642160501b6044820152606490fd5b91926124f595949160a094600180871b0380921685521660208401526040830152606082015281608082015201906122f1565b91906005811015611efd5760018103612a1857505060405163a9059cbb60e01b81526001600160a01b0393841660048201526024810192909252909160209183916044918391600091165af1801561258e576129fa5750600190565b612a119060203d8111611b7057611b618183611e3e565b503861278b565b9093929060028103612a7f5750506001600160a01b031691823b15610f67576040516323b872dd60e01b81523060048201526001600160a01b039290921660248301526044820152906000908290606490829084905af1801561258e576127925750600190565b60038196959392949614600014612afd575060405192906001600160a01b0316612aa884611e23565b600092838552813b15610f86578380959697612adb60405198899687958694637921219560e11b8652306004870161296b565b03925af1908115612af157506127925750600190565b604051903d90823e3d90fd5b93949293600414159150612b429050576000808093819382908215612b38575b6001600160a01b031690f161278d576040513d6000823e3d90fd5b6108fc9150612b1d565b5050600090565b60405190612b5682611ded565b60006060838281528260208201528260408201520152565b919082039182116123f757565b91612b8790828461302c565b9160018060a01b039182600092168252600160205260409384832090835260205283822093600285019384549360ff8560201c16612bc481611f48565b8015612d4e5780612bd6600292611f48565b14612d455763ffffffff9081861660018901546201518090818302858116908103612d3157612c05908261240d565b4210612d1757505064ff0000000019909616640200000000178755612c2f91905b96541684612f4c565b916060830151928351612c4181611f48565b612c4a81611f48565b612c8c5750612c66955086549160038801541692015192612daa565b6007820190612c76825482612b6e565b9155612c876008830191825461240d565b905590565b9150939491925060018351612ca081611f48565b612ca981611f48565b03612cc05750500151612cbb916123e4565b612c66565b60028394929451612cd081611f48565b612cd981611f48565b14612ce9575b5050509050612c66565b612d0d93506127109460606020612d049301510151906123e4565b910151906123e4565b0480388080612cdf565b612c2f94939850612d2a91925042612b6e565b0495612c26565b634e487b7160e01b85526011600452602485fd5b50505050505090565b835162461bcd60e51b8152602060048201526008602482015267556e506c6564676560c01b6044820152606490fd5b90816020910312610f67575160ff81168103610f675790565b63ffffffff16604d81116123f757600a0a90565b6001600160a01b0390811694939216848114612ed257604051908163313ce56760e01b9687825281600460209586935afa90811561258e57839160ff91600091612eb5575b50169660046040518094819382525afa90811561258e5760ff92600092612e88575b50501692838514612e705792612e42612e3c61271094612e37612e4895612e4f986123e4565b6123e4565b91612d96565b906123e4565b0491612d96565b908115612e5a570490565b634e487b7160e01b600052601260045260246000fd5b916127109450612e849350612e37916123e4565b0490565b612ea79250803d10612eae575b612e9f8183611e3e565b810190612d7d565b3880612e11565b503d612e95565b612ecc9150833d8511612eae57612e9f8183611e3e565b38612def565b506127109350612e849291612e37916123e4565b60405190612ef382611e08565b60006040838281528260208201520152565b60405190612f1282611dd2565b6000608083612f1f612b49565b8152612f29612b49565b6020820152612f36612b49565b6040820152612f43612ee6565b60608201520152565b612f54612f05565b506040805160609290921b6bffffffffffffffffffffffff19166020830190815260e09390931b6001600160e01b03191660348301529190612f998160388101610b82565b519020600052600060205263ffffffff600e82600020835193612fbb85611dd2565b612fc482612441565b8552612fd260048301612441565b6020860152612fe360088301612441565b81860152805190612ff382611e08565b60ff600c84015481811661300681611f48565b845260081c1615156020830152600d830154908201526060850152015416608082015290565b90916040519160208301936001600160601b0319809260601b16855260601b16603483015260488201526048815261306381611ded565b5190209056fefb80d861da582b723be2d19507ce3e03851820c464abea89156ec77e089b1ad9a2646970667358221220518739c5efd8ca9d21c3149dec44e547a01a3eb8a450b6e7e767e6ad6240870064736f6c634300081100332f8788117e7eff1d82e926ec794901d17c78024a50270940304540a733656f0d",
    "linkReferences": {}
  },
  "methodIdentifiers": {
    "DEFAULT_ADMIN_ROLE()": "a217fddf",
    "MGR_ROLE()": "444bbb54",
    "MINER_ROLE()": "6394f6e6",
    "OWNER_ROLE()": "e58378bb",
    "PLEDGE_RATE_DECIMAILS()": "34771e62",
    "getLatestPledge(address,address,uint256)": "27a99cb1",
    "getPayToken(address,uint32)": "22eb7931",
    "getPledge(address,address,uint256)": "a68aede0",
    "getPledgeCfg(address,uint32)": "ac346a1f",
    "getPledgeInfo(address,address,uint256)": "70dcbfc6",
    "getPledgeReturn(address,uint32)": "8703ba2b",
    "getPledgeToken(address,uint32)": "6c83fc34",
    "getProfitToken(address,uint32)": "9785207e",
    "getRoleAdmin(bytes32)": "248a9ca3",
    "grantRole(bytes32,address)": "2f2ff15d",
    "hasRole(bytes32,address)": "91d14854",
    "mint(address,uint256,uint256,string)": "bb7fde71",
    "mintPledge(address,uint256,uint256,string,uint32)": "26cbd26b",
    "onERC1155BatchReceived(address,address,uint256[],uint256[],bytes)": "bc197c81",
    "onERC1155Received(address,address,uint256,uint256,bytes)": "f23a6e61",
    "onERC721Received(address,address,uint256,bytes)": "150b7a02",
    "owner()": "8da5cb5b",
    "pledgeToken(address,uint256,uint256,uint32)": "59f1da6c",
    "renounceOwnership()": "715018a6",
    "renounceRole(bytes32,address)": "36568abe",
    "revokeRole(bytes32,address)": "d547741f",
    "setPledgeCfg((address,uint256,uint8,uint256),(address,uint256,uint8,uint256),(address,uint256,uint8,uint256),(uint8,bool,uint256),uint32)": "96c817e7",
    "supportsInterface(bytes4)": "01ffc9a7",
    "transferOwnership(address)": "f2fde38b",
    "updateIncome(address)": "f7c24aa3",
    "withdraw(address,uint256,uint256,address)": "16762eed",
    "withdrawPledge(address,uint256)": "f9dfa79f",
    "withdrawProfit(address,uint256)": "d35c9a07"
  },
  "id": 49
}