{
  "abi": [
    {
      "inputs": [
        {
          "internalType": "address",
          "name": "incAddr",
          "type": "address"
        }
      ],
      "stateMutability": "nonpayable",
      "type": "constructor"
    },
    {
      "anonymous": false,
      "inputs": [
        {
          "indexed": false,
          "internalType": "address",
          "name": "sender",
          "type": "address"
        },
        {
          "indexed": true,
          "internalType": "address",
          "name": "tokenAddr",
          "type": "address"
        },
        {
          "indexed": true,
          "internalType": "uint256",
          "name": "tokenId",
          "type": "uint256"
        },
        {
          "indexed": false,
          "internalType": "uint256",
          "name": "tokenAmount",
          "type": "uint256"
        },
        {
          "indexed": false,
          "internalType": "string",
          "name": "cid",
          "type": "string"
        }
      ],
      "name": "Mint",
      "type": "event"
    },
    {
      "anonymous": false,
      "inputs": [
        {
          "indexed": true,
          "internalType": "address",
          "name": "previousOwner",
          "type": "address"
        },
        {
          "indexed": true,
          "internalType": "address",
          "name": "newOwner",
          "type": "address"
        }
      ],
      "name": "OwnershipTransferred",
      "type": "event"
    },
    {
      "anonymous": false,
      "inputs": [
        {
          "indexed": true,
          "internalType": "address",
          "name": "sender",
          "type": "address"
        },
        {
          "indexed": true,
          "internalType": "address",
          "name": "tokenAddr",
          "type": "address"
        },
        {
          "indexed": true,
          "internalType": "uint16",
          "name": "pledgeDays",
          "type": "uint16"
        },
        {
          "indexed": false,
          "internalType": "uint256",
          "name": "tokenId",
          "type": "uint256"
        },
        {
          "indexed": false,
          "internalType": "uint256",
          "name": "amount",
          "type": "uint256"
        }
      ],
      "name": "PledgeToken",
      "type": "event"
    },
    {
      "anonymous": false,
      "inputs": [
        {
          "indexed": true,
          "internalType": "bytes32",
          "name": "role",
          "type": "bytes32"
        },
        {
          "indexed": true,
          "internalType": "bytes32",
          "name": "previousAdminRole",
          "type": "bytes32"
        },
        {
          "indexed": true,
          "internalType": "bytes32",
          "name": "newAdminRole",
          "type": "bytes32"
        }
      ],
      "name": "RoleAdminChanged",
      "type": "event"
    },
    {
      "anonymous": false,
      "inputs": [
        {
          "indexed": true,
          "internalType": "bytes32",
          "name": "role",
          "type": "bytes32"
        },
        {
          "indexed": true,
          "internalType": "address",
          "name": "account",
          "type": "address"
        },
        {
          "indexed": true,
          "internalType": "address",
          "name": "sender",
          "type": "address"
        }
      ],
      "name": "RoleGranted",
      "type": "event"
    },
    {
      "anonymous": false,
      "inputs": [
        {
          "indexed": true,
          "internalType": "bytes32",
          "name": "role",
          "type": "bytes32"
        },
        {
          "indexed": true,
          "internalType": "address",
          "name": "account",
          "type": "address"
        },
        {
          "indexed": true,
          "internalType": "address",
          "name": "sender",
          "type": "address"
        }
      ],
      "name": "RoleRevoked",
      "type": "event"
    },
    {
      "anonymous": false,
      "inputs": [
        {
          "indexed": false,
          "internalType": "address",
          "name": "sender",
          "type": "address"
        },
        {
          "indexed": true,
          "internalType": "bytes32",
          "name": "key",
          "type": "bytes32"
        },
        {
          "indexed": true,
          "internalType": "uint256",
          "name": "profit",
          "type": "uint256"
        },
        {
          "indexed": false,
          "internalType": "enum Store.ProfitType",
          "name": "pType",
          "type": "uint8"
        }
      ],
      "name": "SetPledgeReturn",
      "type": "event"
    },
    {
      "anonymous": false,
      "inputs": [
        {
          "indexed": true,
          "internalType": "address",
          "name": "sender",
          "type": "address"
        },
        {
          "indexed": true,
          "internalType": "address",
          "name": "newIncome",
          "type": "address"
        },
        {
          "indexed": true,
          "internalType": "address",
          "name": "oldIncome",
          "type": "address"
        }
      ],
      "name": "UpdateIncome",
      "type": "event"
    },
    {
      "anonymous": false,
      "inputs": [
        {
          "indexed": true,
          "internalType": "address",
          "name": "sender",
          "type": "address"
        },
        {
          "indexed": true,
          "internalType": "address",
          "name": "tokenAddr",
          "type": "address"
        },
        {
          "indexed": true,
          "internalType": "enum Store.TokenType",
          "name": "nType",
          "type": "uint8"
        },
        {
          "indexed": false,
          "internalType": "address",
          "name": "payAddr",
          "type": "address"
        },
        {
          "indexed": false,
          "internalType": "address",
          "name": "aDropAddr",
          "type": "address"
        }
      ],
      "name": "UpdateMintCfg",
      "type": "event"
    },
    {
      "anonymous": false,
      "inputs": [
        {
          "indexed": true,
          "internalType": "address",
          "name": "sender",
          "type": "address"
        },
        {
          "indexed": true,
          "internalType": "address",
          "name": "pledgeToken",
          "type": "address"
        },
        {
          "indexed": false,
          "internalType": "uint256",
          "name": "tokenId",
          "type": "uint256"
        },
        {
          "indexed": false,
          "internalType": "uint256",
          "name": "pledgeAmount",
          "type": "uint256"
        },
        {
          "indexed": false,
          "internalType": "address",
          "name": "profitToken",
          "type": "address"
        },
        {
          "indexed": false,
          "internalType": "uint256",
          "name": "profitAmount",
          "type": "uint256"
        }
      ],
      "name": "WithdrawPledge",
      "type": "event"
    },
    {
      "anonymous": false,
      "inputs": [
        {
          "indexed": true,
          "internalType": "address",
          "name": "sender",
          "type": "address"
        },
        {
          "indexed": true,
          "internalType": "address",
          "name": "profitToken",
          "type": "address"
        },
        {
          "indexed": true,
          "internalType": "uint256",
          "name": "amount",
          "type": "uint256"
        }
      ],
      "name": "WithdrawProfit",
      "type": "event"
    },
    {
      "inputs": [],
      "name": "DEFAULT_ADMIN_ROLE",
      "outputs": [
        {
          "internalType": "bytes32",
          "name": "",
          "type": "bytes32"
        }
      ],
      "stateMutability": "view",
      "type": "function"
    },
    {
      "inputs": [],
      "name": "MGR_ROLE",
      "outputs": [
        {
          "internalType": "bytes32",
          "name": "",
          "type": "bytes32"
        }
      ],
      "stateMutability": "view",
      "type": "function"
    },
    {
      "inputs": [],
      "name": "MINER_ROLE",
      "outputs": [
        {
          "internalType": "bytes32",
          "name": "",
          "type": "bytes32"
        }
      ],
      "stateMutability": "view",
      "type": "function"
    },
    {
      "inputs": [],
      "name": "OWNER_ROLE",
      "outputs": [
        {
          "internalType": "bytes32",
          "name": "",
          "type": "bytes32"
        }
      ],
      "stateMutability": "view",
      "type": "function"
    },
    {
      "inputs": [],
      "name": "PLEDGE_RATE_DECIMAILS",
      "outputs": [
        {
          "internalType": "uint256",
          "name": "",
          "type": "uint256"
        }
      ],
      "stateMutability": "view",
      "type": "function"
    },
    {
      "inputs": [
        {
          "internalType": "address",
          "name": "acc",
          "type": "address"
        },
        {
          "internalType": "address",
          "name": "tokenAddr",
          "type": "address"
        },
        {
          "internalType": "uint256",
          "name": "tokenId",
          "type": "uint256"
        }
      ],
      "name": "getLatestPledge",
      "outputs": [
        {
          "internalType": "uint256",
          "name": "",
          "type": "uint256"
        },
        {
          "internalType": "uint256",
          "name": "",
          "type": "uint256"
        },
        {
          "internalType": "address",
          "name": "",
          "type": "address"
        },
        {
          "internalType": "uint256",
          "name": "",
          "type": "uint256"
        },
        {
          "internalType": "uint256",
          "name": "",
          "type": "uint256"
        }
      ],
      "stateMutability": "nonpayable",
      "type": "function"
    },
    {
      "inputs": [
        {
          "internalType": "address",
          "name": "acc",
          "type": "address"
        },
        {
          "internalType": "address",
          "name": "tokenAddr",
          "type": "address"
        },
        {
          "internalType": "uint256",
          "name": "tokenId",
          "type": "uint256"
        }
      ],
      "name": "getPledgeInfo",
      "outputs": [
        {
          "internalType": "uint256",
          "name": "",
          "type": "uint256"
        },
        {
          "internalType": "uint256",
          "name": "",
          "type": "uint256"
        },
        {
          "internalType": "uint16",
          "name": "",
          "type": "uint16"
        },
        {
          "internalType": "address",
          "name": "",
          "type": "address"
        },
        {
          "internalType": "uint256",
          "name": "",
          "type": "uint256"
        },
        {
          "internalType": "uint256",
          "name": "",
          "type": "uint256"
        }
      ],
      "stateMutability": "view",
      "type": "function"
    },
    {
      "inputs": [
        {
          "internalType": "address",
          "name": "plgToken",
          "type": "address"
        }
      ],
      "name": "getPledgeReqire",
      "outputs": [
        {
          "internalType": "bool",
          "name": "",
          "type": "bool"
        },
        {
          "internalType": "address",
          "name": "",
          "type": "address"
        },
        {
          "internalType": "enum Store.ERCType",
          "name": "",
          "type": "uint8"
        },
        {
          "internalType": "address",
          "name": "",
          "type": "address"
        },
        {
          "internalType": "enum Store.ERCType",
          "name": "",
          "type": "uint8"
        }
      ],
      "stateMutability": "view",
      "type": "function"
    },
    {
      "inputs": [
        {
          "internalType": "address",
          "name": "tokenAddr",
          "type": "address"
        },
        {
          "internalType": "uint16",
          "name": "pledgeDays",
          "type": "uint16"
        }
      ],
      "name": "getPledgeReturn",
      "outputs": [
        {
          "internalType": "uint8",
          "name": "",
          "type": "uint8"
        },
        {
          "internalType": "uint256",
          "name": "",
          "type": "uint256"
        }
      ],
      "stateMutability": "view",
      "type": "function"
    },
    {
      "inputs": [
        {
          "internalType": "bytes32",
          "name": "keyHash",
          "type": "bytes32"
        }
      ],
      "name": "getPledgeReturnByKey",
      "outputs": [
        {
          "internalType": "uint8",
          "name": "",
          "type": "uint8"
        },
        {
          "internalType": "uint256",
          "name": "",
          "type": "uint256"
        }
      ],
      "stateMutability": "view",
      "type": "function"
    },
    {
      "inputs": [
        {
          "internalType": "bytes32",
          "name": "role",
          "type": "bytes32"
        }
      ],
      "name": "getRoleAdmin",
      "outputs": [
        {
          "internalType": "bytes32",
          "name": "",
          "type": "bytes32"
        }
      ],
      "stateMutability": "view",
      "type": "function"
    },
    {
      "inputs": [
        {
          "internalType": "bytes32",
          "name": "role",
          "type": "bytes32"
        },
        {
          "internalType": "address",
          "name": "account",
          "type": "address"
        }
      ],
      "name": "grantRole",
      "outputs": [],
      "stateMutability": "nonpayable",
      "type": "function"
    },
    {
      "inputs": [
        {
          "internalType": "bytes32",
          "name": "role",
          "type": "bytes32"
        },
        {
          "internalType": "address",
          "name": "account",
          "type": "address"
        }
      ],
      "name": "hasRole",
      "outputs": [
        {
          "internalType": "bool",
          "name": "",
          "type": "bool"
        }
      ],
      "stateMutability": "view",
      "type": "function"
    },
    {
      "inputs": [
        {
          "internalType": "address",
          "name": "tokenAddr",
          "type": "address"
        },
        {
          "internalType": "uint256",
          "name": "tokenId",
          "type": "uint256"
        },
        {
          "internalType": "uint256",
          "name": "tokenAmount",
          "type": "uint256"
        },
        {
          "internalType": "string",
          "name": "cid",
          "type": "string"
        }
      ],
      "name": "mint",
      "outputs": [],
      "stateMutability": "payable",
      "type": "function"
    },
    {
      "inputs": [
        {
          "internalType": "address",
          "name": "tokenAddr",
          "type": "address"
        },
        {
          "internalType": "uint256",
          "name": "tokenId",
          "type": "uint256"
        },
        {
          "internalType": "uint256",
          "name": "tokenAmount",
          "type": "uint256"
        },
        {
          "internalType": "string",
          "name": "cid",
          "type": "string"
        },
        {
          "internalType": "uint16",
          "name": "pledgeDays",
          "type": "uint16"
        }
      ],
      "name": "mintPledge",
      "outputs": [],
      "stateMutability": "payable",
      "type": "function"
    },
    {
      "inputs": [
        {
          "internalType": "address",
          "name": "",
          "type": "address"
        },
        {
          "internalType": "address",
          "name": "",
          "type": "address"
        },
        {
          "internalType": "uint256[]",
          "name": "",
          "type": "uint256[]"
        },
        {
          "internalType": "uint256[]",
          "name": "",
          "type": "uint256[]"
        },
        {
          "internalType": "bytes",
          "name": "",
          "type": "bytes"
        }
      ],
      "name": "onERC1155BatchReceived",
      "outputs": [
        {
          "internalType": "bytes4",
          "name": "",
          "type": "bytes4"
        }
      ],
      "stateMutability": "nonpayable",
      "type": "function"
    },
    {
      "inputs": [
        {
          "internalType": "address",
          "name": "",
          "type": "address"
        },
        {
          "internalType": "address",
          "name": "",
          "type": "address"
        },
        {
          "internalType": "uint256",
          "name": "",
          "type": "uint256"
        },
        {
          "internalType": "uint256",
          "name": "",
          "type": "uint256"
        },
        {
          "internalType": "bytes",
          "name": "",
          "type": "bytes"
        }
      ],
      "name": "onERC1155Received",
      "outputs": [
        {
          "internalType": "bytes4",
          "name": "",
          "type": "bytes4"
        }
      ],
      "stateMutability": "nonpayable",
      "type": "function"
    },
    {
      "inputs": [
        {
          "internalType": "address",
          "name": "",
          "type": "address"
        },
        {
          "internalType": "address",
          "name": "",
          "type": "address"
        },
        {
          "internalType": "uint256",
          "name": "",
          "type": "uint256"
        },
        {
          "internalType": "bytes",
          "name": "",
          "type": "bytes"
        }
      ],
      "name": "onERC721Received",
      "outputs": [
        {
          "internalType": "bytes4",
          "name": "",
          "type": "bytes4"
        }
      ],
      "stateMutability": "nonpayable",
      "type": "function"
    },
    {
      "inputs": [],
      "name": "owner",
      "outputs": [
        {
          "internalType": "address",
          "name": "",
          "type": "address"
        }
      ],
      "stateMutability": "view",
      "type": "function"
    },
    {
      "inputs": [
        {
          "internalType": "address",
          "name": "tokenAddr",
          "type": "address"
        },
        {
          "internalType": "uint256",
          "name": "tokenId",
          "type": "uint256"
        },
        {
          "internalType": "uint256",
          "name": "tokenAmount",
          "type": "uint256"
        },
        {
          "internalType": "uint16",
          "name": "pledgeDays",
          "type": "uint16"
        }
      ],
      "name": "pledgeToken",
      "outputs": [],
      "stateMutability": "nonpayable",
      "type": "function"
    },
    {
      "inputs": [],
      "name": "renounceOwnership",
      "outputs": [],
      "stateMutability": "nonpayable",
      "type": "function"
    },
    {
      "inputs": [
        {
          "internalType": "bytes32",
          "name": "role",
          "type": "bytes32"
        },
        {
          "internalType": "address",
          "name": "account",
          "type": "address"
        }
      ],
      "name": "renounceRole",
      "outputs": [],
      "stateMutability": "nonpayable",
      "type": "function"
    },
    {
      "inputs": [
        {
          "internalType": "bytes32",
          "name": "role",
          "type": "bytes32"
        },
        {
          "internalType": "address",
          "name": "account",
          "type": "address"
        }
      ],
      "name": "revokeRole",
      "outputs": [],
      "stateMutability": "nonpayable",
      "type": "function"
    },
    {
      "inputs": [
        {
          "internalType": "address",
          "name": "tokenAddr",
          "type": "address"
        },
        {
          "internalType": "enum Store.TokenType",
          "name": "nType",
          "type": "uint8"
        },
        {
          "internalType": "enum Store.TokenLevel",
          "name": "nLevel",
          "type": "uint8"
        },
        {
          "internalType": "address",
          "name": "payToken",
          "type": "address"
        },
        {
          "internalType": "uint256",
          "name": "payValue",
          "type": "uint256"
        },
        {
          "internalType": "address",
          "name": "aDropToken",
          "type": "address"
        },
        {
          "internalType": "uint256",
          "name": "aDropValue",
          "type": "uint256"
        }
      ],
      "name": "setMintCfg",
      "outputs": [],
      "stateMutability": "nonpayable",
      "type": "function"
    },
    {
      "inputs": [
        {
          "internalType": "address",
          "name": "plgToken",
          "type": "address"
        },
        {
          "internalType": "enum Store.ERCType",
          "name": "pledgeTokenErc",
          "type": "uint8"
        },
        {
          "internalType": "address",
          "name": "profitToken",
          "type": "address"
        },
        {
          "internalType": "enum Store.ERCType",
          "name": "profitTokenErc",
          "type": "uint8"
        }
      ],
      "name": "setPledgeReqire",
      "outputs": [],
      "stateMutability": "nonpayable",
      "type": "function"
    },
    {
      "inputs": [
        {
          "internalType": "address",
          "name": "tokenAddr",
          "type": "address"
        },
        {
          "internalType": "uint16",
          "name": "pledgeDays",
          "type": "uint16"
        },
        {
          "internalType": "enum Store.ProfitType",
          "name": "pType",
          "type": "uint8"
        },
        {
          "internalType": "uint256",
          "name": "profit",
          "type": "uint256"
        }
      ],
      "name": "setPledgeReturn",
      "outputs": [],
      "stateMutability": "nonpayable",
      "type": "function"
    },
    {
      "inputs": [
        {
          "internalType": "bytes4",
          "name": "interfaceId",
          "type": "bytes4"
        }
      ],
      "name": "supportsInterface",
      "outputs": [
        {
          "internalType": "bool",
          "name": "",
          "type": "bool"
        }
      ],
      "stateMutability": "view",
      "type": "function"
    },
    {
      "inputs": [
        {
          "internalType": "address",
          "name": "newOwner",
          "type": "address"
        }
      ],
      "name": "transferOwnership",
      "outputs": [],
      "stateMutability": "nonpayable",
      "type": "function"
    },
    {
      "inputs": [
        {
          "internalType": "address",
          "name": "income",
          "type": "address"
        }
      ],
      "name": "updateIncome",
      "outputs": [],
      "stateMutability": "nonpayable",
      "type": "function"
    },
    {
      "inputs": [
        {
          "internalType": "address",
          "name": "tokenAddr",
          "type": "address"
        },
        {
          "internalType": "enum Store.ERCType",
          "name": "erc",
          "type": "uint8"
        },
        {
          "internalType": "enum Store.TokenType",
          "name": "nType",
          "type": "uint8"
        },
        {
          "internalType": "enum Store.TokenLevel",
          "name": "nLevel",
          "type": "uint8"
        },
        {
          "internalType": "uint16",
          "name": "pledgeDays",
          "type": "uint16"
        },
        {
          "internalType": "address",
          "name": "payToken",
          "type": "address"
        },
        {
          "internalType": "enum Store.ERCType",
          "name": "payERC",
          "type": "uint8"
        },
        {
          "internalType": "uint256",
          "name": "payValue",
          "type": "uint256"
        },
        {
          "internalType": "address",
          "name": "aDropToken",
          "type": "address"
        },
        {
          "internalType": "enum Store.ERCType",
          "name": "aDropERC",
          "type": "uint8"
        },
        {
          "internalType": "uint256",
          "name": "aDropValue",
          "type": "uint256"
        },
        {
          "internalType": "bool",
          "name": "adAsProfit",
          "type": "bool"
        }
      ],
      "name": "updateMintCfg",
      "outputs": [],
      "stateMutability": "nonpayable",
      "type": "function"
    },
    {
      "inputs": [
        {
          "internalType": "address",
          "name": "tokenAddr",
          "type": "address"
        },
        {
          "internalType": "uint256",
          "name": "tokenId",
          "type": "uint256"
        }
      ],
      "name": "withdraw",
      "outputs": [],
      "stateMutability": "nonpayable",
      "type": "function"
    },
    {
      "inputs": [
        {
          "internalType": "address",
          "name": "plgToken",
          "type": "address"
        },
        {
          "internalType": "uint256",
          "name": "tokenId",
          "type": "uint256"
        }
      ],
      "name": "withdrawPledge",
      "outputs": [],
      "stateMutability": "nonpayable",
      "type": "function"
    },
    {
      "inputs": [
        {
          "internalType": "address",
          "name": "pledgeToken",
          "type": "address"
        },
        {
          "internalType": "uint256",
          "name": "tokenId",
          "type": "uint256"
        }
      ],
      "name": "withdrawProfit",
      "outputs": [],
      "stateMutability": "nonpayable",
      "type": "function"
    }
  ],
  "bytecode": {
    "object": "0x60806040523480156200001157600080fd5b50604051620045bc380380620045bc83398101604081905262000034916200027d565b6200003f336200012c565b6200007a7fa952726ef2588ad078edf35b066f7c7406e207cb0003bbaba8cb53eba9553e726000805160206200459c8339815191526200017e565b620000a46000805160206200457c8339815191526000805160206200459c8339815191526200017e565b620000d07fa952726ef2588ad078edf35b066f7c7406e207cb0003bbaba8cb53eba9553e7233620001c9565b620000eb6000805160206200459c83398151915233620001c9565b620001066000805160206200457c83398151915233620001c9565b600780546001600160a01b0319166001600160a01b0392909216919091179055620002af565b600580546001600160a01b038381166001600160a01b0319831681179093556040519116919082907f8be0079c531659141344cd1fd0a4f28419497f9722a3daafe3b4186f6b6457e090600090a35050565b600082815260066020526040808220600101805490849055905190918391839186917fbd79b86ffe0ab8e8776151514217cd7cacd52c909f66475c3af44e129f0b00ff9190a4505050565b620001d58282620001d9565b5050565b60008281526006602090815260408083206001600160a01b038516845290915290205460ff16620001d55760008281526006602090815260408083206001600160a01b03851684529091529020805460ff19166001179055620002393390565b6001600160a01b0316816001600160a01b0316837f2f8788117e7eff1d82e926ec794901d17c78024a50270940304540a733656f0d60405160405180910390a45050565b6000602082840312156200029057600080fd5b81516001600160a01b0381168114620002a857600080fd5b9392505050565b6142bd80620002bf6000396000f3fe6080604052600436106101ee5760003560e01c80638da5cb5b1161010d578063d547741f116100a0578063f3fef3a31161006f578063f3fef3a31461067b578063f7b7c88f1461069b578063f7c24aa3146106bb578063f9dfa79f146106db578063fa846ba6146106fb57600080fd5b8063d547741f146105db578063e58378bb146105fb578063f23a6e611461062f578063f2fde38b1461065b57600080fd5b8063a62508be116100dc578063a62508be14610569578063bb7fde711461057c578063bc197c811461058f578063d35c9a07146105bb57600080fd5b80638da5cb5b146104ec57806391d14854146105145780639bc8fa3e14610534578063a217fddf1461055457600080fd5b806336568abe11610185578063556a304111610154578063556a3041146104245780636394f6e61461044457806370dcbfc614610478578063715018a6146104d757600080fd5b806336568abe146103a2578063425c4747146103c2578063444bbb54146103e257806349396e3a1461040457600080fd5b806327a99cb1116101c157806327a99cb1146102e35780632f2ff15d1461033957806330a96d421461035b57806334771e621461038c57600080fd5b806301ffc9a7146101f3578063150b7a0214610228578063207d1ca61461026c578063248a9ca3146102a5575b600080fd5b3480156101ff57600080fd5b5061021361020e3660046137f0565b61071b565b60405190151581526020015b60405180910390f35b34801561023457600080fd5b506102536102433660046138ed565b630a85bd0160e11b949350505050565b6040516001600160e01b0319909116815260200161021f565b34801561027857600080fd5b5061028c610287366004613967565b610752565b6040805160ff909316835260208301919091520161021f565b3480156102b157600080fd5b506102d56102c036600461399a565b60009081526006602052604090206001015490565b60405190815260200161021f565b3480156102ef57600080fd5b506103036102fe3660046139b3565b6107cb565b6040805195865260208601949094526001600160a01b03909216928401929092526060830191909152608082015260a00161021f565b34801561034557600080fd5b506103596103543660046139ef565b6108a1565b005b34801561036757600080fd5b5061037b610376366004613a12565b6108cb565b60405161021f959493929190613a57565b34801561039857600080fd5b506102d561271081565b3480156103ae57600080fd5b506103596103bd3660046139ef565b6109f1565b3480156103ce57600080fd5b506103596103dd366004613aa1565b610a74565b3480156103ee57600080fd5b506102d560008051602061426883398151915281565b34801561041057600080fd5b5061035961041f366004613af5565b610c23565b34801561043057600080fd5b5061028c61043f36600461399a565b610e1c565b34801561045057600080fd5b506102d57fa952726ef2588ad078edf35b066f7c7406e207cb0003bbaba8cb53eba9553e7281565b34801561048457600080fd5b506104986104933660046139b3565b610e5b565b60408051968752602087019590955261ffff909316938501939093526001600160a01b03166060840152608083019190915260a082015260c00161021f565b3480156104e357600080fd5b50610359610f76565b3480156104f857600080fd5b506005546040516001600160a01b03909116815260200161021f565b34801561052057600080fd5b5061021361052f3660046139ef565b610f8a565b34801561054057600080fd5b5061035961054f366004613b30565b610fb5565b34801561056057600080fd5b506102d5600081565b610359610577366004613b81565b61109c565b61035961058a366004613bf3565b61141e565b34801561059b57600080fd5b506102536105aa366004613cbc565b63bc197c8160e01b95945050505050565b3480156105c757600080fd5b506103596105d6366004613d66565b611629565b3480156105e757600080fd5b506103596105f63660046139ef565b611700565b34801561060757600080fd5b506102d57fb19546dff01e856fb3f010c267a7b1c60363cf8a4664e21cc89c26224620214e81565b34801561063b57600080fd5b5061025361064a366004613d90565b63f23a6e6160e01b95945050505050565b34801561066757600080fd5b50610359610676366004613a12565b611725565b34801561068757600080fd5b50610359610696366004613d66565b61179e565b3480156106a757600080fd5b506103596106b6366004613e13565b6117b0565b3480156106c757600080fd5b506103596106d6366004613a12565b611806565b3480156106e757600080fd5b506103596106f6366004613d66565b6118a6565b34801561070757600080fd5b50610359610716366004613e99565b611b7d565b60006001600160e01b03198216637965db0b60e01b148061074c57506301ffc9a760e01b6001600160e01b03198316145b92915050565b6000806000610787858560405160200161076d929190613f6b565b604051602081830303815290604052805160209091012090565b60008181526020819052604090205490915060ff1660018111156107ad576107ad613a2d565b60009182526020829052604090912060010154909590945092505050565b6000806000806000806107df898989611edc565b6040805160e081018252825481526001830154602082015260028084015461ffff81169383019390935290929160608401916201000090910460ff169081111561082b5761082b613a2d565b600281111561083c5761083c613a2d565b81526002820154630100000090046001600160a01b031660208201526003820154604080830191909152600490920154606090910152815190820151608083015160a084015160c090940151929d61ffff9092169c509a509198509650945050505050565b6000828152600660205260409020600101546108bc81612147565b6108c68383612151565b505050565b6001600160a01b038082166000908152600160208181526040808420815160608082018452825460ff90811615158352845191820190945294820180549788168652959687968796879687968796948683019492840191600160a01b90910416600481111561093c5761093c613a2d565b600481111561094d5761094d613a2d565b81526001919091015460209182015290825260408051606081019091526003840180546001600160a01b0381168352938301939192909190830190600160a01b900460ff1660048111156109a3576109a3613a2d565b60048111156109b4576109b4613a2d565b81526001919091015460209182015291528251838201518051908301516040909501518051930151919c909b509399509097509550909350505050565b6001600160a01b0381163314610a665760405162461bcd60e51b815260206004820152602f60248201527f416363657373436f6e74726f6c3a2063616e206f6e6c792072656e6f756e636560448201526e103937b632b9903337b91039b2b63360891b60648201526084015b60405180910390fd5b610a7082826121d7565b5050565b610a8c60008051602061426883398151915233610f8a565b610aa85760405162461bcd60e51b8152600401610a5d90613f9a565b60405180606001604052806001151581526020016040518060600160405280876001600160a01b03168152602001866004811115610ae857610ae8613a2d565b8152602001600081525081526020016040518060600160405280856001600160a01b03168152602001846004811115610b2357610b23613a2d565b815260006020918201819052919092526001600160a01b038088168252600180845260409092208451815490151560ff199091161781558484015180519382018054949093166001600160a01b0319851681178455948101519194909383916001600160a81b031990911617600160a01b836004811115610ba657610ba6613a2d565b021790555060409182015160019091015582015180516003830180546001600160a01b039092166001600160a01b03198316811782556020840151919283916001600160a81b031990911617600160a01b836004811115610c0957610c09613a2d565b021790555060408201518160010155505090505050505050565b808061ffff1660071480610c3b57508061ffff16601e145b80610c4a57508061ffff16605a145b80610c5957508061ffff1660b4145b610c9e5760405162461bcd60e51b815260206004820152601660248201527504d75737420626520372c33302c36302c39302c3138360541b6044820152606401610a5d565b6001600160a01b0385166000908152600160205260409020548590859060ff16610cff5760405162461bcd60e51b8152602060048201526012602482015271746f6b656e2063616e277420706c6564676560701b6044820152606401610a5d565b6000610d0c33848461223e565b3360009081526004602090815260408083208484528252808320815160e0810183528154815260018201549381019390935260028082015461ffff8116938501939093529495509293919291606084019162010000900460ff1690811115610d7657610d76613a2d565b6002811115610d8757610d87613a2d565b81526002820154630100000090046001600160a01b0316602082015260038201546040820152600490910154606090910152805190915015610df95760405162461bcd60e51b815260206004820152600b60248201526a283632b233b4b73397171760a91b6044820152606401610a5d565b610e04898989612282565b610e11338a8a8a8a61252d565b505050505050505050565b600081815260208190526040812054819060ff166001811115610e4157610e41613a2d565b600093845260208490526040909320600101549293915050565b6000806000806000806000610e718a8a8a612712565b6001600160a01b038b1660009081526004602090815260408083208484528252808320815160e0810183528154815260018201549381019390935260028082015461ffff8116938501939093529495509293919291606084019162010000900460ff1690811115610ee457610ee4613a2d565b6002811115610ef557610ef5613a2d565b81526020016002820160039054906101000a90046001600160a01b03166001600160a01b03166001600160a01b0316815260200160038201548152602001600482015481525050905080600001518160200151826040015183608001518460a001518560c00151975097509750975097509750505093975093979195509350565b610f7e61271f565b610f886000612779565b565b60009182526006602090815260408084206001600160a01b0393909316845291905290205460ff1690565b610fcd60008051602061426883398151915233610f8a565b610fe95760405162461bcd60e51b8152600401610a5d90613f9a565b6000610ff585856127cb565b9050604051806040016040528084600181111561101457611014613a2d565b815260209081018490526000838152908190526040902081518154829060ff19166001838181111561104857611048613a2d565b02179055506020820151816001015590505081817f269e38b9235c8fee1ada7840c44663763ebe93f43d1c302ae219702811ffa7c3338660405161108d929190613fc1565b60405180910390a35050505050565b6001600160a01b038516600090815260036020526040808220815160c0810190925280548893929190829060ff1660048111156110db576110db613a2d565b60048111156110ec576110ec613a2d565b81528154602090910190610100900460ff16600381111561110f5761110f613a2d565b600381111561112057611120613a2d565b8152815460209091019062010000900460ff16600281111561114457611144613a2d565b600281111561115557611155613a2d565b815281546301000000900461ffff16602080830191909152604080516060810182526001850180546001600160a01b038116835292909401939092909190830190600160a01b900460ff1660048111156111b1576111b1613a2d565b60048111156111c2576111c2613a2d565b81526001919091015460209182015290825260408051606081019091526003840180546001600160a01b0381168352938301939192909190830190600160a01b900460ff16600481111561121857611218613a2d565b600481111561122957611229613a2d565b815260019190910154602090910152905250905060008160200151600381111561125557611255613a2d565b036112925760405162461bcd60e51b815260206004820152600d60248201526c556e6b6f776e20746f6b656e2160981b6044820152606401610a5d565b6001600160a01b0387166000908152600160205260409020548790879060ff166112f35760405162461bcd60e51b8152602060048201526012602482015271746f6b656e2063616e277420706c6564676560701b6044820152606401610a5d565b600061130033848461223e565b3360009081526004602090815260408083208484528252808320815160e0810183528154815260018201549381019390935260028082015461ffff8116938501939093529495509293919291606084019162010000900460ff169081111561136a5761136a613a2d565b600281111561137b5761137b613a2d565b81526002820154630100000090046001600160a01b03166020820152600382015460408201526004909101546060909101528051909150156113ed5760405162461bcd60e51b815260206004820152600b60248201526a283632b233b4b73397171760a91b6044820152606401610a5d565b6113fa8b8b8b8b306127e3565b61ffff87161561141157611411338c8c8c8b61252d565b5050505050505050505050565b6001600160a01b038416600090815260036020526040808220815160c0810190925280548793929190829060ff16600481111561145d5761145d613a2d565b600481111561146e5761146e613a2d565b81528154602090910190610100900460ff16600381111561149157611491613a2d565b60038111156114a2576114a2613a2d565b8152815460209091019062010000900460ff1660028111156114c6576114c6613a2d565b60028111156114d7576114d7613a2d565b815281546301000000900461ffff16602080830191909152604080516060810182526001850180546001600160a01b038116835292909401939092909190830190600160a01b900460ff16600481111561153357611533613a2d565b600481111561154457611544613a2d565b81526001919091015460209182015290825260408051606081019091526003840180546001600160a01b0381168352938301939192909190830190600160a01b900460ff16600481111561159a5761159a613a2d565b60048111156115ab576115ab613a2d565b81526001919091015460209091015290525090506000816020015160038111156115d7576115d7613a2d565b036116145760405162461bcd60e51b815260206004820152600d60248201526c556e6b6f776e20746f6b656e2160981b6044820152606401610a5d565b61162186868686336127e3565b505050505050565b6000611636338484611edc565b60048101549091508061167f5760405162461bcd60e51b81526020600482015260116024820152702737ba3434b733903bb4ba34323930bbbf60791b6044820152606401610a5d565b60008061168b866108cb565b600289015491965094506001600160a01b038087166301000000909204161492506116ed9150505760405162461bcd60e51b815260206004820152600f60248201526e383632b233b2aa37b5b2b71032b93960891b6044820152606401610a5d565b6000600485015561162182828786612b21565b60008281526006602052604090206001015461171b81612147565b6108c683836121d7565b61172d61271f565b6001600160a01b0381166117925760405162461bcd60e51b815260206004820152602660248201527f4f776e61626c653a206e6577206f776e657220697320746865207a65726f206160448201526564647265737360d01b6064820152608401610a5d565b61179b81612779565b50565b81816117aa8484612cc7565b50505050565b6117c860008051602061426883398151915233610f8a565b6117e45760405162461bcd60e51b8152600401610a5d90613f9a565b6117fd8760028888601e8960018a8a60018b6001611b7d565b50505050505050565b61180e61271f565b6001600160a01b0381166118535760405162461bcd60e51b815260206004820152600c60248201526b7a65726f206164647265737360a01b6044820152606401610a5d565b600780546001600160a01b038381166001600160a01b031983168117909355604051911691829133907facfdf2068f2b4dda3f4970ef49a4cad3a0a7735a3badb3577bcabb3a8898073890600090a45050565b60006118b3338484611edc565b90506002808281015462010000900460ff16908111156118d5576118d5613a2d565b146119175760405162461bcd60e51b8152602060048201526012602482015271506c6564676520756e66696e69736865642160701b6044820152606401610a5d565b60048101805460009182905590808061192f876108cb565b919650945092505050831580159061195d575060028501546001600160a01b03838116630100000090920416145b1561196e5761196e82828887612b21565b600183600481111561198257611982613a2d565b036119fe5760405163a9059cbb60e01b8152336004820152602481018590526001600160a01b0388169063a9059cbb906044016020604051808303816000875af11580156119d4573d6000803e3d6000fd5b505050506040513d601f19601f820116820180604052508101906119f89190613fee565b50611b0a565b6002836004811115611a1257611a12613a2d565b03611a7e576040516323b872dd60e01b81526001600160a01b038816906323b872dd90611a4790309033908b9060040161400b565b600060405180830381600087803b158015611a6157600080fd5b505af1158015611a75573d6000803e3d6000fd5b50505050611b0a565b6002836004811115611a9257611a92613a2d565b03611b0a5760408051602081018252600081529051637921219560e11b81526001600160a01b0389169163f242432a91611ad791309133918c918b919060040161407f565b600060405180830381600087803b158015611af157600080fd5b505af1158015611b05573d6000803e3d6000fd5b505050505b845460028601546003870154604080518a815260208101949094526001600160a01b036301000000909304831690840152606083015288169033907f7f17ff0c099057bb0e700cc8906e38df4274727452016bb115c5fa3138a6de949060800160405180910390a36117fd338888612ef3565b611b9560008051602061426883398151915233610f8a565b611bb15760405162461bcd60e51b8152600401610a5d90613f9a565b6001600160a01b038c16611c075760405162461bcd60e51b815260206004820152601760248201527f7a65726f206164647265737320746f6b656e41646472210000000000000000006044820152606401610a5d565b6040518060c001604052808c6004811115611c2457611c24613a2d565b81526020018b6003811115611c3b57611c3b613a2d565b81526020018a6002811115611c5257611c52613a2d565b81526020018961ffff16815260200160405180606001604052808a6001600160a01b03168152602001896004811115611c8d57611c8d613a2d565b81526020018881525081526020016040518060600160405280876001600160a01b03168152602001866004811115611cc757611cc7613a2d565b8152602090810186905291526001600160a01b038e16600090815260039091526040902081518154829060ff19166001836004811115611d0957611d09613a2d565b021790555060208201518154829061ff001916610100836003811115611d3157611d31613a2d565b021790555060408201518154829062ff0000191662010000836002811115611d5b57611d5b613a2d565b02179055506060820151815461ffff90911663010000000264ffff00000019909116178155608082015180516001830180546001600160a01b039092166001600160a01b03198316811782556020840151919283916001600160a81b031990911617600160a01b836004811115611dd457611dd4613a2d565b02179055506040919091015160019091015560a082015180516003830180546001600160a01b031981166001600160a01b0390931692831782556020840151919283916001600160a81b03191617600160a01b836004811115611e3957611e39613a2d565b0217905550604082015181600101555050905050808015611e6257506001600160a01b03841615155b15611e7357611e738c8c8686610a74565b896003811115611e8557611e85613a2d565b604080516001600160a01b038a8116825287811660208301528f169133917fdbd64424d52d7e62e8d058a4dc2dd79a96d4ecdd84670758d92f78422ac377cd910160405180910390a4505050505050505050505050565b600080611eea858585612712565b6001600160a01b0386166000908152600460209081526040808320848452909152812091925060028281015462010000900460ff1690811115611f2f57611f2f613a2d565b03611f675760405162461bcd60e51b8152602060048201526008602482015267556e506c6564676560c01b6044820152606401610a5d565b6002808281015462010000900460ff1690811115611f8757611f87613a2d565b03611f955791506121409050565b600281015461ffff166000611fad82620151806140cf565b62ffffff168360010154611fc191906140f6565b90506000814210611fea575060028301805462ff000019166202000017905561ffff821661200b565b62015180846001015442611ffe9190614109565b612008919061411c565b90505b6000612023898560405160200161076d929190613f6b565b600081815260208190526040808220815180830190925280549394509192839290829060ff16600181111561205a5761205a613a2d565b600181111561206b5761206b613a2d565b815260019190910154602090910152905060008151600181111561209157612091613a2d565b036120c55786546020820151612710916120aa9161413e565b6120b4908661413e565b6120be919061411c565b91506120fe565b6001815160018111156120da576120da613a2d565b036120ee5760208101516120be908561413e565b8698505050505050505050612140565b6003870154600061210f8285614109565b90508389600301819055508089600401600082825461212e91906140f6565b90915550989a50505050505050505050505b9392505050565b61179b8133612f54565b61215b8282610f8a565b610a705760008281526006602090815260408083206001600160a01b03851684529091529020805460ff191660011790556121933390565b6001600160a01b0316816001600160a01b0316837f2f8788117e7eff1d82e926ec794901d17c78024a50270940304540a733656f0d60405160405180910390a45050565b6121e18282610f8a565b15610a705760008281526006602090815260408083206001600160a01b0385168085529252808320805460ff1916905551339285917ff6391f5c32d9c69d2a47ea670b442974b53935d1edc7fd64eb21e047a839171b9190a45050565b6040516bffffffffffffffffffffffff19606085811b8216602084015284901b1660348201526048810182905260009061227a9060680161076d565b949350505050565b6001600160a01b038084166000908152600160208181526040808420815160608082018452825460ff9081161515835284519182019094529482018054978816865295969095919486850194909390840191600160a01b90041660048111156122ed576122ed613a2d565b60048111156122fe576122fe613a2d565b81526001919091015460209182015290825260408051606081019091526003840180546001600160a01b0381168352938301939192909190830190600160a01b900460ff16600481111561235457612354613a2d565b600481111561236557612365613a2d565b815260019182015460209182015291909252838101510151929350905081600481111561239457612394613a2d565b03612412576040516323b872dd60e01b81526001600160a01b038616906323b872dd906123c99033903090889060040161400b565b6020604051808303816000875af11580156123e8573d6000803e3d6000fd5b505050506040513d601f19601f8201168201806040525081019061240c9190613fee565b50612526565b600281600481111561242657612426613a2d565b03612492576040516323b872dd60e01b81526001600160a01b038616906323b872dd9061245b9033903090899060040161400b565b600060405180830381600087803b15801561247557600080fd5b505af1158015612489573d6000803e3d6000fd5b50505050612526565b60038160048111156124a6576124a6613a2d565b036124eb5760408051602081018252600081529051637921219560e11b81526001600160a01b0387169163f242432a9161245b91339130918a918a919060040161407f565b60405162461bcd60e51b815260206004820152601060248201526f756e6b6f776e2065726320747970652160801b6044820152606401610a5d565b5050505050565b808061ffff166007148061254557508061ffff16601e145b8061255457508061ffff16605a145b8061256357508061ffff1660b4145b6125a85760405162461bcd60e51b815260206004820152601660248201527504d75737420626520372c33302c36302c39302c3138360541b6044820152606401610a5d565b60006125b587878761223e565b905060006125c2876108cb565b506040805160e0810182528a815242602082015261ffff8a1691810191909152909450925050606082019050600181526001600160a01b03808416602080840191909152600060408085018290526060948501829052928d16815260048252828120878252825282902084518155908401516001820155908301516002808301805461ffff90931661ffff19841681178255948601519394909262ffffff191617906201000090849081111561267a5761267a613a2d565b021790555060808201516002820180546301000000600160b81b03191663010000006001600160a01b039384160217905560a0830151600383015560c090920151600490910155604080518881526020810188905261ffff8716928a811692908c16917f07ea6964d35f47d7e432d68d76bb5040ba7163c89f86a3a3af8fdb578036abda910160405180910390a45050505050505050565b600061227a84848461223e565b6005546001600160a01b03163314610f885760405162461bcd60e51b815260206004820181905260248201527f4f776e61626c653a2063616c6c6572206973206e6f7420746865206f776e65726044820152606401610a5d565b600580546001600160a01b038381166001600160a01b0319831681179093556040519116919082907f8be0079c531659141344cd1fd0a4f28419497f9722a3daafe3b4186f6b6457e090600090a35050565b6000612140838360405160200161076d929190613f6b565b6001600160a01b038516600090815260036020526040808220815160c081019092528054829060ff16600481111561281d5761281d613a2d565b600481111561282e5761282e613a2d565b81528154602090910190610100900460ff16600381111561285157612851613a2d565b600381111561286257612862613a2d565b8152815460209091019062010000900460ff16600281111561288657612886613a2d565b600281111561289757612897613a2d565b815281546301000000900461ffff16602080830191909152604080516060810182526001850180546001600160a01b038116835292909401939092909190830190600160a01b900460ff1660048111156128f3576128f3613a2d565b600481111561290457612904613a2d565b81526001919091015460209182015290825260408051606081019091526003840180546001600160a01b0381168352938301939192909190830190600160a01b900460ff16600481111561295a5761295a613a2d565b600481111561296b5761296b613a2d565b815260019190910154602090910152905250905060008160200151600381111561299757612997613a2d565b036129d45760405162461bcd60e51b815260206004820152600d60248201526c556e6b6f776e20546f6b656e2160981b6044820152606401610a5d565b6129e18160800151612fad565b612a2d5760405162461bcd60e51b815260206004820152601760248201527f706179546f6b656e2068616e646c65206661696c6564210000000000000000006044820152606401610a5d565b612a3f8682600001518787878761323f565b612a7a5760405162461bcd60e51b815260206004820152600c60248201526b6d696e74206661696c65642160a01b6044820152606401610a5d565b612a878160a0015161336c565b612ad35760405162461bcd60e51b815260206004820152601860248201527f61697244726f70546f6b656e20756e66696e69736865642100000000000000006044820152606401610a5d565b84866001600160a01b03167fad2943b15836caf43698401a62af4738985fb33dd979844d99d37f5293f037d3338787604051612b1193929190614155565b60405180910390a3505050505050565b6001836004811115612b3557612b35613a2d565b03612ba0576040516340c10f1960e01b8152336004820152602481018290526001600160a01b038516906340c10f19906044015b600060405180830381600087803b158015612b8357600080fd5b505af1158015612b97573d6000803e3d6000fd5b50505050612c89565b6002836004811115612bb457612bb4613a2d565b03612bfa576040516334ff261960e21b81523360048201526024810183905260606044820152600060648201526001600160a01b0385169063d3fc986490608401612b69565b6002836004811115612c0e57612c0e613a2d565b03612c895760405163bb7fde7160e01b8152336004820152602481018390526044810182905260806064820152600060848201526001600160a01b0385169063bb7fde719060a401600060405180830381600087803b158015612c7057600080fd5b505af1158015612c84573d6000803e3d6000fd5b505050505b60405181906001600160a01b0386169033907f7d11196ad7aec5325589a029930cc3b3c650fa71f6d6bca14bd1c3f4454e99be90600090a450505050565b6001600160a01b03821660009081526003602052604081205460ff1690816004811115612cf657612cf6613a2d565b03612d345760405162461bcd60e51b815260206004820152600e60248201526d34b73b30b4b632b2103a37b5b2b760911b6044820152606401610a5d565b6000612d41338585613490565b90506001826004811115612d5757612d57613a2d565b03612dd657805160405163a9059cbb60e01b815233600482015260248101919091526001600160a01b0385169063a9059cbb906044016020604051808303816000875af1158015612dac573d6000803e3d6000fd5b505050506040513d601f19601f82011682018060405250810190612dd09190613fee565b50612ee1565b6002826004811115612dea57612dea613a2d565b03612e56576040516323b872dd60e01b81526001600160a01b038516906323b872dd90612e1f9030903390889060040161400b565b600060405180830381600087803b158015612e3957600080fd5b505af1158015612e4d573d6000803e3d6000fd5b50505050612ee1565b6003826004811115612e6a57612e6a613a2d565b03612ee157805160408051602081018252600081529051637921219560e11b81526001600160a01b0387169263f242432a92612eae92309233928a9260040161407f565b600060405180830381600087803b158015612ec857600080fd5b505af1158015612edc573d6000803e3d6000fd5b505050505b6117aa81608001518260c00151613594565b6000612f00848484612712565b6001600160a01b039094166000908152600460208181526040808420978452969052948120818155600181018290556002810180546001600160b81b03191690556003810182905590940193909355505050565b612f5e8282610f8a565b610a7057612f6b81613642565b612f76836020613654565b604051602001612f87929190614185565b60408051601f198184030181529082905262461bcd60e51b8252610a5d916004016141fa565b60008160400151600003612fc357506001919050565b81516001600160a01b031661302057816040015134101561301b5760405162461bcd60e51b815260206004820152601260248201527136b9b3973b30b63ab2903a37b7903637bbbf60711b6044820152606401610a5d565b613173565b815160408084015190516323b872dd60e01b81526001600160a01b03909216916323b872dd91613056913391309160040161400b565b6020604051808303816000875af1158015613075573d6000803e3d6000fd5b505050506040513d601f19601f820116820180604052508101906130999190613fee565b6130f35760405162461bcd60e51b815260206004820152602560248201527f4552433230207472616e73666572206661696c656421204d61796265206e6f74604482015264040c2eae8d60db1b6064820152608401610a5d565b8151600754604080850151905163095ea7b360e01b81526001600160a01b039283166004820152602481019190915291169063095ea7b3906044016020604051808303816000875af115801561314d573d6000803e3d6000fd5b505050506040513d601f19601f820116820180604052508101906131719190613fee565b505b6007548251604080850151905163b0aaeed960e01b81526001600160a01b039283166004820152602481019190915291169063b0aaeed990349060440160206040518083038185885af11580156131ce573d6000803e3d6000fd5b50505050506040513d601f19601f820116820180604052508101906131f39190613fee565b6132375760405162461bcd60e51b81526020600482015260156024820152746465706f736974496e636f6d65206661696c65642160581b6044820152606401610a5d565b506001919050565b6000600186600481111561325557613255613a2d565b036132c2576040516340c10f1960e01b81526001600160a01b038381166004830152602482018690528816906340c10f19906044015b600060405180830381600087803b1580156132a557600080fd5b505af11580156132b9573d6000803e3d6000fd5b5050505061335e565b60028660048111156132d6576132d6613a2d565b0361330b576040516334ff261960e21b81526001600160a01b0388169063d3fc98649061328b90859089908890600401614155565b600386600481111561331f5761331f613a2d565b036133565760405163bb7fde7160e01b81526001600160a01b0388169063bb7fde719061328b90859089908990899060040161420d565b506000613362565b5060015b9695505050505050565b6000816040015160000361338257506001919050565b81516001600160a01b031661341f5781604001513410156133e55760405162461bcd60e51b815260206004820152601b60248201527f41697244726f703a206d73672e76616c756520746f6f206c6f777e00000000006044820152606401610a5d565b60408083015190513391829181156108fc0291906000818181858888f19350505050158015613418573d6000803e3d6000fd5b5050613237565b815160408084015190516340c10f1960e01b815233600482015260248101919091526001600160a01b03909116906340c10f1990604401600060405180830381600087803b15801561347057600080fd5b505af1158015613484573d6000803e3d6000fd5b50505050506001919050565b6040805160e081018252600080825260208201819052918101829052606081018290526080810182905260a0810182905260c08101829052906134d485858561223e565b6001600160a01b0386166000908152600460209081526040808320848452825291829020825160e0810184528154815260018201549281019290925260028082015461ffff8116948401949094529394509092909160608401916201000090910460ff169081111561354857613548613a2d565b600281111561355957613559613a2d565b81526002820154630100000090046001600160a01b031660208201526003820154604082015260049091015460609091015295945050505050565b6001600160a01b0382166135d1576040513390819083156108fc029084906000818181858888f193505050501580156117aa573d6000803e3d6000fd5b60405163a9059cbb60e01b8152336004820152602481018290526001600160a01b0383169063a9059cbb906044016020604051808303816000875af115801561361e573d6000803e3d6000fd5b505050506040513d601f19601f820116820180604052508101906108c69190613fee565b606061074c6001600160a01b03831660145b6060600061366383600261413e565b61366e9060026140f6565b67ffffffffffffffff81111561368657613686613836565b6040519080825280601f01601f1916602001820160405280156136b0576020820181803683370190505b509050600360fc1b816000815181106136cb576136cb61423a565b60200101906001600160f81b031916908160001a905350600f60fb1b816001815181106136fa576136fa61423a565b60200101906001600160f81b031916908160001a905350600061371e84600261413e565b6137299060016140f6565b90505b60018111156137a1576f181899199a1a9b1b9c1cb0b131b232b360811b85600f166010811061375d5761375d61423a565b1a60f81b8282815181106137735761377361423a565b60200101906001600160f81b031916908160001a90535060049490941c9361379a81614250565b905061372c565b5083156121405760405162461bcd60e51b815260206004820181905260248201527f537472696e67733a20686578206c656e67746820696e73756666696369656e746044820152606401610a5d565b60006020828403121561380257600080fd5b81356001600160e01b03198116811461214057600080fd5b80356001600160a01b038116811461383157600080fd5b919050565b634e487b7160e01b600052604160045260246000fd5b604051601f8201601f1916810167ffffffffffffffff8111828210171561387557613875613836565b604052919050565b600082601f83011261388e57600080fd5b813567ffffffffffffffff8111156138a8576138a8613836565b6138bb601f8201601f191660200161384c565b8181528460208386010111156138d057600080fd5b816020850160208301376000918101602001919091529392505050565b6000806000806080858703121561390357600080fd5b61390c8561381a565b935061391a6020860161381a565b925060408501359150606085013567ffffffffffffffff81111561393d57600080fd5b6139498782880161387d565b91505092959194509250565b803561ffff8116811461383157600080fd5b6000806040838503121561397a57600080fd5b6139838361381a565b915061399160208401613955565b90509250929050565b6000602082840312156139ac57600080fd5b5035919050565b6000806000606084860312156139c857600080fd5b6139d18461381a565b92506139df6020850161381a565b9150604084013590509250925092565b60008060408385031215613a0257600080fd5b823591506139916020840161381a565b600060208284031215613a2457600080fd5b6121408261381a565b634e487b7160e01b600052602160045260246000fd5b60058110613a5357613a53613a2d565b9052565b85151581526001600160a01b03858116602083015260a0820190613a7e6040840187613a43565b841660608301526133626080830184613a43565b80356005811061383157600080fd5b60008060008060808587031215613ab757600080fd5b613ac08561381a565b9350613ace60208601613a92565b9250613adc6040860161381a565b9150613aea60608601613a92565b905092959194509250565b60008060008060808587031215613b0b57600080fd5b613b148561381a565b93506020850135925060408501359150613aea60608601613955565b60008060008060808587031215613b4657600080fd5b613b4f8561381a565b9350613b5d60208601613955565b9250604085013560028110613b7157600080fd5b9396929550929360600135925050565b600080600080600060a08688031215613b9957600080fd5b613ba28661381a565b94506020860135935060408601359250606086013567ffffffffffffffff811115613bcc57600080fd5b613bd88882890161387d565b925050613be760808701613955565b90509295509295909350565b60008060008060808587031215613c0957600080fd5b613c128561381a565b93506020850135925060408501359150606085013567ffffffffffffffff81111561393d57600080fd5b600082601f830112613c4d57600080fd5b8135602067ffffffffffffffff821115613c6957613c69613836565b8160051b613c7882820161384c565b9283528481018201928281019087851115613c9257600080fd5b83870192505b84831015613cb157823582529183019190830190613c98565b979650505050505050565b600080600080600060a08688031215613cd457600080fd5b613cdd8661381a565b9450613ceb6020870161381a565b9350604086013567ffffffffffffffff80821115613d0857600080fd5b613d1489838a01613c3c565b94506060880135915080821115613d2a57600080fd5b613d3689838a01613c3c565b93506080880135915080821115613d4c57600080fd5b50613d598882890161387d565b9150509295509295909350565b60008060408385031215613d7957600080fd5b613d828361381a565b946020939093013593505050565b600080600080600060a08688031215613da857600080fd5b613db18661381a565b9450613dbf6020870161381a565b93506040860135925060608601359150608086013567ffffffffffffffff811115613de957600080fd5b613d598882890161387d565b80356004811061383157600080fd5b80356003811061383157600080fd5b600080600080600080600060e0888a031215613e2e57600080fd5b613e378861381a565b9650613e4560208901613df5565b9550613e5360408901613e04565b9450613e616060890161381a565b935060808801359250613e7660a0890161381a565b915060c0880135905092959891949750929550565b801515811461179b57600080fd5b6000806000806000806000806000806000806101808d8f031215613ebc57600080fd5b613ec58d61381a565b9b50613ed360208e01613a92565b9a50613ee160408e01613df5565b9950613eef60608e01613e04565b9850613efd60808e01613955565b9750613f0b60a08e0161381a565b9650613f1960c08e01613a92565b955060e08d01359450613f2f6101008e0161381a565b9350613f3e6101208e01613a92565b92506101408d013591506101608d0135613f5781613e8b565b809150509295989b509295989b509295989b565b60609290921b6bffffffffffffffffffffffff1916825260f01b6001600160f01b031916601482015260160190565b6020808252600d908201526c27b7363c9036b0b730b3b2b93f60991b604082015260600190565b6001600160a01b03831681526040810160028310613fe157613fe1613a2d565b8260208301529392505050565b60006020828403121561400057600080fd5b815161214081613e8b565b6001600160a01b039384168152919092166020820152604081019190915260600190565b60005b8381101561404a578181015183820152602001614032565b50506000910152565b6000815180845261406b81602086016020860161402f565b601f01601f19169290920160200192915050565b6001600160a01b03868116825285166020820152604081018490526060810183905260a060808201819052600090613cb190830184614053565b634e487b7160e01b600052601160045260246000fd5b62ffffff8181168382160280821691908281146140ee576140ee6140b9565b505092915050565b8082018082111561074c5761074c6140b9565b8181038181111561074c5761074c6140b9565b60008261413957634e487b7160e01b600052601260045260246000fd5b500490565b808202811582820484141761074c5761074c6140b9565b60018060a01b038416815282602082015260606040820152600061417c6060830184614053565b95945050505050565b7f416363657373436f6e74726f6c3a206163636f756e74200000000000000000008152600083516141bd81601785016020880161402f565b7001034b99036b4b9b9b4b733903937b6329607d1b60179184019182015283516141ee81602884016020880161402f565b01602801949350505050565b6020815260006121406020830184614053565b60018060a01b03851681528360208201528260408201526080606082015260006133626080830184614053565b634e487b7160e01b600052603260045260246000fd5b60008161425f5761425f6140b9565b50600019019056fe559ed53715d3bb4e833868d1befaf5d894eb100353e9c04fc83767f0f381473ea2646970667358221220d4597d1db63ef77a706798d97a0e892dffa5895075e60b0d7cac5cb989b1e91164736f6c63430008110033559ed53715d3bb4e833868d1befaf5d894eb100353e9c04fc83767f0f381473eb19546dff01e856fb3f010c267a7b1c60363cf8a4664e21cc89c26224620214e",
    "linkReferences": {}
  },
  "methodIdentifiers": {
    "DEFAULT_ADMIN_ROLE()": "a217fddf",
    "MGR_ROLE()": "444bbb54",
    "MINER_ROLE()": "6394f6e6",
    "OWNER_ROLE()": "e58378bb",
    "PLEDGE_RATE_DECIMAILS()": "34771e62",
    "getLatestPledge(address,address,uint256)": "27a99cb1",
    "getPledgeInfo(address,address,uint256)": "70dcbfc6",
    "getPledgeReqire(address)": "30a96d42",
    "getPledgeReturn(address,uint16)": "207d1ca6",
    "getPledgeReturnByKey(bytes32)": "556a3041",
    "getRoleAdmin(bytes32)": "248a9ca3",
    "grantRole(bytes32,address)": "2f2ff15d",
    "hasRole(bytes32,address)": "91d14854",
    "mint(address,uint256,uint256,string)": "bb7fde71",
    "mintPledge(address,uint256,uint256,string,uint16)": "a62508be",
    "onERC1155BatchReceived(address,address,uint256[],uint256[],bytes)": "bc197c81",
    "onERC1155Received(address,address,uint256,uint256,bytes)": "f23a6e61",
    "onERC721Received(address,address,uint256,bytes)": "150b7a02",
    "owner()": "8da5cb5b",
    "pledgeToken(address,uint256,uint256,uint16)": "49396e3a",
    "renounceOwnership()": "715018a6",
    "renounceRole(bytes32,address)": "36568abe",
    "revokeRole(bytes32,address)": "d547741f",
    "setMintCfg(address,uint8,uint8,address,uint256,address,uint256)": "f7b7c88f",
    "setPledgeReqire(address,uint8,address,uint8)": "425c4747",
    "setPledgeReturn(address,uint16,uint8,uint256)": "9bc8fa3e",
    "supportsInterface(bytes4)": "01ffc9a7",
    "transferOwnership(address)": "f2fde38b",
    "updateIncome(address)": "f7c24aa3",
    "updateMintCfg(address,uint8,uint8,uint8,uint16,address,uint8,uint256,address,uint8,uint256,bool)": "fa846ba6",
    "withdraw(address,uint256)": "f3fef3a3",
    "withdrawPledge(address,uint256)": "f9dfa79f",
    "withdrawProfit(address,uint256)": "d35c9a07"
  },
  "id": 46
}